{
	"contracts/EWallet.sol": {
		"EWallet": {
			"abi": [
				{
					"inputs": [],
					"stateMutability": "nonpayable",
					"type": "constructor"
				},
				{
					"inputs": [
						{
							"internalType": "address",
							"name": "",
							"type": "address"
						}
					],
					"name": "allowance",
					"outputs": [
						{
							"internalType": "uint256",
							"name": "",
							"type": "uint256"
						}
					],
					"stateMutability": "view",
					"type": "function"
				},
				{
					"inputs": [],
					"name": "confirmationFromGuardiansForReset",
					"outputs": [
						{
							"internalType": "uint256",
							"name": "",
							"type": "uint256"
						}
					],
					"stateMutability": "view",
					"type": "function"
				},
				{
					"inputs": [
						{
							"internalType": "address",
							"name": "",
							"type": "address"
						}
					],
					"name": "guardians",
					"outputs": [
						{
							"internalType": "bool",
							"name": "",
							"type": "bool"
						}
					],
					"stateMutability": "view",
					"type": "function"
				},
				{
					"inputs": [
						{
							"internalType": "address payable",
							"name": "_newOwner",
							"type": "address"
						}
					],
					"name": "proposeNewOwner",
					"outputs": [],
					"stateMutability": "nonpayable",
					"type": "function"
				},
				{
					"inputs": [
						{
							"internalType": "address",
							"name": "_for",
							"type": "address"
						},
						{
							"internalType": "uint256",
							"name": "_amount",
							"type": "uint256"
						}
					],
					"name": "setAllowance",
					"outputs": [],
					"stateMutability": "nonpayable",
					"type": "function"
				},
				{
					"inputs": [
						{
							"internalType": "address",
							"name": "_guardian",
							"type": "address"
						},
						{
							"internalType": "bool",
							"name": "_isGuardian",
							"type": "bool"
						}
					],
					"name": "setGuardian",
					"outputs": [],
					"stateMutability": "nonpayable",
					"type": "function"
				},
				{
					"inputs": [
						{
							"internalType": "address payable",
							"name": "_to",
							"type": "address"
						},
						{
							"internalType": "uint256",
							"name": "_amount",
							"type": "uint256"
						},
						{
							"internalType": "bytes",
							"name": "_payload",
							"type": "bytes"
						}
					],
					"name": "transferFunds",
					"outputs": [
						{
							"internalType": "bytes",
							"name": "",
							"type": "bytes"
						}
					],
					"stateMutability": "nonpayable",
					"type": "function"
				},
				{
					"inputs": [],
					"name": "walletOwner",
					"outputs": [
						{
							"internalType": "address payable",
							"name": "",
							"type": "address"
						}
					],
					"stateMutability": "view",
					"type": "function"
				},
				{
					"stateMutability": "payable",
					"type": "receive"
				}
			],
			"devdoc": {
				"kind": "dev",
				"methods": {},
				"version": 1
			},
			"evm": {
				"assembly": "    /* \"contracts/EWallet.sol\":227:2552  contract EWallet {... */\n  mstore(0x40, 0x80)\n    /* \"contracts/EWallet.sol\":636:699  constructor(){... */\n  callvalue\n  dup1\n  iszero\n  tag_1\n  jumpi\n  0x00\n  dup1\n  revert\ntag_1:\n  pop\n    /* \"contracts/EWallet.sol\":681:691  msg.sender */\n  caller\n    /* \"contracts/EWallet.sol\":659:670  walletOwner */\n  0x00\n  dup1\n    /* \"contracts/EWallet.sol\":659:692  walletOwner = payable(msg.sender) */\n  0x0100\n  exp\n  dup2\n  sload\n  dup2\n  0xffffffffffffffffffffffffffffffffffffffff\n  mul\n  not\n  and\n  swap1\n  dup4\n  0xffffffffffffffffffffffffffffffffffffffff\n  and\n  mul\n  or\n  swap1\n  sstore\n  pop\n    /* \"contracts/EWallet.sol\":227:2552  contract EWallet {... */\n  dataSize(sub_0)\n  dup1\n  dataOffset(sub_0)\n  0x00\n  codecopy\n  0x00\n  return\nstop\n\nsub_0: assembly {\n        /* \"contracts/EWallet.sol\":227:2552  contract EWallet {... */\n      mstore(0x40, 0x80)\n      jumpi(tag_1, lt(calldatasize, 0x04))\n      shr(0xe0, calldataload(0x00))\n      dup1\n      0x310ec4a7\n      gt\n      tag_11\n      jumpi\n      dup1\n      0x310ec4a7\n      eq\n      tag_7\n      jumpi\n      dup1\n      0x3e5beab9\n      eq\n      tag_8\n      jumpi\n      dup1\n      0x58e404b1\n      eq\n      tag_9\n      jumpi\n      dup1\n      0xb1f8100d\n      eq\n      tag_10\n      jumpi\n      jump(tag_2)\n    tag_11:\n      dup1\n      0x0633b14a\n      eq\n      tag_3\n      jumpi\n      dup1\n      0x0d663035\n      eq\n      tag_4\n      jumpi\n      dup1\n      0x1ae879e8\n      eq\n      tag_5\n      jumpi\n      dup1\n      0x2b8a1c5a\n      eq\n      tag_6\n      jumpi\n      jump(tag_2)\n    tag_1:\n      jumpi(tag_2, calldatasize)\n      stop\n    tag_2:\n      0x00\n      dup1\n      revert\n        /* \"contracts/EWallet.sol\":417:459  mapping (address => bool) public guardians */\n    tag_3:\n      callvalue\n      dup1\n      iszero\n      tag_14\n      jumpi\n      0x00\n      dup1\n      revert\n    tag_14:\n      pop\n      tag_15\n      0x04\n      dup1\n      calldatasize\n      sub\n      dup2\n      add\n      swap1\n      tag_16\n      swap2\n      swap1\n      tag_17\n      jump\t// in\n    tag_16:\n      tag_18\n      jump\t// in\n    tag_15:\n      mload(0x40)\n      tag_19\n      swap2\n      swap1\n      tag_20\n      jump\t// in\n    tag_19:\n      mload(0x40)\n      dup1\n      swap2\n      sub\n      swap1\n      return\n        /* \"contracts/EWallet.sol\":1909:2545  function transferFunds(address payable _to, uint _amount, bytes memory _payload) public returns(bytes memory) {... */\n    tag_4:\n      callvalue\n      dup1\n      iszero\n      tag_21\n      jumpi\n      0x00\n      dup1\n      revert\n    tag_21:\n      pop\n      tag_22\n      0x04\n      dup1\n      calldatasize\n      sub\n      dup2\n      add\n      swap1\n      tag_23\n      swap2\n      swap1\n      tag_24\n      jump\t// in\n    tag_23:\n      tag_25\n      jump\t// in\n    tag_22:\n      mload(0x40)\n      tag_26\n      swap2\n      swap1\n      tag_27\n      jump\t// in\n    tag_26:\n      mload(0x40)\n      dup1\n      swap2\n      sub\n      swap1\n      return\n        /* \"contracts/EWallet.sol\":251:285  address payable public walletOwner */\n    tag_5:\n      callvalue\n      dup1\n      iszero\n      tag_28\n      jumpi\n      0x00\n      dup1\n      revert\n    tag_28:\n      pop\n      tag_29\n      tag_30\n      jump\t// in\n    tag_29:\n      mload(0x40)\n      tag_31\n      swap2\n      swap1\n      tag_32\n      jump\t// in\n    tag_31:\n      mload(0x40)\n      dup1\n      swap2\n      sub\n      swap1\n      return\n        /* \"contracts/EWallet.sol\":812:999  function setGuardian(address _guardian, bool _isGuardian) public {... */\n    tag_6:\n      callvalue\n      dup1\n      iszero\n      tag_33\n      jumpi\n      0x00\n      dup1\n      revert\n    tag_33:\n      pop\n      tag_34\n      0x04\n      dup1\n      calldatasize\n      sub\n      dup2\n      add\n      swap1\n      tag_35\n      swap2\n      swap1\n      tag_36\n      jump\t// in\n    tag_35:\n      tag_37\n      jump\t// in\n    tag_34:\n      stop\n        /* \"contracts/EWallet.sol\":1594:1903  function setAllowance(address _for, uint _amount) public {... */\n    tag_7:\n      callvalue\n      dup1\n      iszero\n      tag_38\n      jumpi\n      0x00\n      dup1\n      revert\n    tag_38:\n      pop\n      tag_39\n      0x04\n      dup1\n      calldatasize\n      sub\n      dup2\n      add\n      swap1\n      tag_40\n      swap2\n      swap1\n      tag_41\n      jump\t// in\n    tag_40:\n      tag_42\n      jump\t// in\n    tag_39:\n      stop\n        /* \"contracts/EWallet.sol\":322:364  mapping (address => uint) public allowance */\n    tag_8:\n      callvalue\n      dup1\n      iszero\n      tag_43\n      jumpi\n      0x00\n      dup1\n      revert\n    tag_43:\n      pop\n      tag_44\n      0x04\n      dup1\n      calldatasize\n      sub\n      dup2\n      add\n      swap1\n      tag_45\n      swap2\n      swap1\n      tag_17\n      jump\t// in\n    tag_45:\n      tag_46\n      jump\t// in\n    tag_44:\n      mload(0x40)\n      tag_47\n      swap2\n      swap1\n      tag_48\n      jump\t// in\n    tag_47:\n      mload(0x40)\n      dup1\n      swap2\n      sub\n      swap1\n      return\n        /* \"contracts/EWallet.sol\":571:629  uint public constant confirmationFromGuardiansForReset = 3 */\n    tag_9:\n      callvalue\n      dup1\n      iszero\n      tag_49\n      jumpi\n      0x00\n      dup1\n      revert\n    tag_49:\n      pop\n      tag_50\n      tag_51\n      jump\t// in\n    tag_50:\n      mload(0x40)\n      tag_52\n      swap2\n      swap1\n      tag_48\n      jump\t// in\n    tag_52:\n      mload(0x40)\n      dup1\n      swap2\n      sub\n      swap1\n      return\n        /* \"contracts/EWallet.sol\":1005:1548  function proposeNewOwner(address payable _newOwner) public {... */\n    tag_10:\n      callvalue\n      dup1\n      iszero\n      tag_53\n      jumpi\n      0x00\n      dup1\n      revert\n    tag_53:\n      pop\n      tag_54\n      0x04\n      dup1\n      calldatasize\n      sub\n      dup2\n      add\n      swap1\n      tag_55\n      swap2\n      swap1\n      tag_56\n      jump\t// in\n    tag_55:\n      tag_57\n      jump\t// in\n    tag_54:\n      stop\n        /* \"contracts/EWallet.sol\":417:459  mapping (address => bool) public guardians */\n    tag_18:\n      mstore(0x20, 0x04)\n      dup1\n      0x00\n      mstore\n      keccak256(0x00, 0x40)\n      0x00\n      swap2\n      pop\n      sload\n      swap1\n      0x0100\n      exp\n      swap1\n      div\n      0xff\n      and\n      dup2\n      jump\t// out\n        /* \"contracts/EWallet.sol\":1909:2545  function transferFunds(address payable _to, uint _amount, bytes memory _payload) public returns(bytes memory) {... */\n    tag_25:\n        /* \"contracts/EWallet.sol\":2005:2017  bytes memory */\n      0x60\n        /* \"contracts/EWallet.sol\":2051:2062  walletOwner */\n      0x00\n      dup1\n      sload\n      swap1\n      0x0100\n      exp\n      swap1\n      div\n      0xffffffffffffffffffffffffffffffffffffffff\n      and\n        /* \"contracts/EWallet.sol\":2037:2062  msg.sender == walletOwner */\n      0xffffffffffffffffffffffffffffffffffffffff\n      and\n        /* \"contracts/EWallet.sol\":2037:2047  msg.sender */\n      caller\n        /* \"contracts/EWallet.sol\":2037:2062  msg.sender == walletOwner */\n      0xffffffffffffffffffffffffffffffffffffffff\n      and\n      eq\n        /* \"contracts/EWallet.sol\":2029:2085  require(msg.sender == walletOwner, \"You aint the owner\") */\n      tag_59\n      jumpi\n      mload(0x40)\n      0x08c379a000000000000000000000000000000000000000000000000000000000\n      dup2\n      mstore\n      0x04\n      add\n      tag_60\n      swap1\n      tag_61\n      jump\t// in\n    tag_60:\n      mload(0x40)\n      dup1\n      swap2\n      sub\n      swap1\n      revert\n    tag_59:\n        /* \"contracts/EWallet.sol\":2113:2124  walletOwner */\n      0x00\n      dup1\n      sload\n      swap1\n      0x0100\n      exp\n      swap1\n      div\n      0xffffffffffffffffffffffffffffffffffffffff\n      and\n        /* \"contracts/EWallet.sol\":2099:2124  msg.sender != walletOwner */\n      0xffffffffffffffffffffffffffffffffffffffff\n      and\n        /* \"contracts/EWallet.sol\":2099:2109  msg.sender */\n      caller\n        /* \"contracts/EWallet.sol\":2099:2124  msg.sender != walletOwner */\n      0xffffffffffffffffffffffffffffffffffffffff\n      and\n      eq\n        /* \"contracts/EWallet.sol\":2096:2355  if(msg.sender != walletOwner){... */\n      tag_62\n      jumpi\n        /* \"contracts/EWallet.sol\":2147:2162  isAllowedToSend */\n      0x03\n        /* \"contracts/EWallet.sol\":2147:2174  isAllowedToSend[msg.sender] */\n      0x00\n        /* \"contracts/EWallet.sol\":2163:2173  msg.sender */\n      caller\n        /* \"contracts/EWallet.sol\":2147:2174  isAllowedToSend[msg.sender] */\n      0xffffffffffffffffffffffffffffffffffffffff\n      and\n      0xffffffffffffffffffffffffffffffffffffffff\n      and\n      dup2\n      mstore\n      0x20\n      add\n      swap1\n      dup2\n      mstore\n      0x20\n      add\n      0x00\n      keccak256\n      0x00\n      swap1\n      sload\n      swap1\n      0x0100\n      exp\n      swap1\n      div\n      0xff\n      and\n        /* \"contracts/EWallet.sol\":2139:2204  require(isAllowedToSend[msg.sender], \"Insufficient Permissions!\") */\n      tag_63\n      jumpi\n      mload(0x40)\n      0x08c379a000000000000000000000000000000000000000000000000000000000\n      dup2\n      mstore\n      0x04\n      add\n      tag_64\n      swap1\n      tag_65\n      jump\t// in\n    tag_64:\n      mload(0x40)\n      dup1\n      swap2\n      sub\n      swap1\n      revert\n    tag_63:\n        /* \"contracts/EWallet.sol\":2251:2258  _amount */\n      dup3\n        /* \"contracts/EWallet.sol\":2226:2235  allowance */\n      0x02\n        /* \"contracts/EWallet.sol\":2226:2247  allowance[msg.sender] */\n      0x00\n        /* \"contracts/EWallet.sol\":2236:2246  msg.sender */\n      caller\n        /* \"contracts/EWallet.sol\":2226:2247  allowance[msg.sender] */\n      0xffffffffffffffffffffffffffffffffffffffff\n      and\n      0xffffffffffffffffffffffffffffffffffffffff\n      and\n      dup2\n      mstore\n      0x20\n      add\n      swap1\n      dup2\n      mstore\n      0x20\n      add\n      0x00\n      keccak256\n      sload\n        /* \"contracts/EWallet.sol\":2226:2258  allowance[msg.sender] >= _amount */\n      lt\n      iszero\n        /* \"contracts/EWallet.sol\":2218:2297  require(allowance[msg.sender] >= _amount, \"Not allowed to send too much money\") */\n      tag_66\n      jumpi\n      mload(0x40)\n      0x08c379a000000000000000000000000000000000000000000000000000000000\n      dup2\n      mstore\n      0x04\n      add\n      tag_67\n      swap1\n      tag_68\n      jump\t// in\n    tag_67:\n      mload(0x40)\n      dup1\n      swap2\n      sub\n      swap1\n      revert\n    tag_66:\n        /* \"contracts/EWallet.sol\":2337:2344  _amount */\n      dup3\n        /* \"contracts/EWallet.sol\":2312:2321  allowance */\n      0x02\n        /* \"contracts/EWallet.sol\":2312:2333  allowance[msg.sender] */\n      0x00\n        /* \"contracts/EWallet.sol\":2322:2332  msg.sender */\n      caller\n        /* \"contracts/EWallet.sol\":2312:2333  allowance[msg.sender] */\n      0xffffffffffffffffffffffffffffffffffffffff\n      and\n      0xffffffffffffffffffffffffffffffffffffffff\n      and\n      dup2\n      mstore\n      0x20\n      add\n      swap1\n      dup2\n      mstore\n      0x20\n      add\n      0x00\n      keccak256\n      0x00\n        /* \"contracts/EWallet.sol\":2312:2344  allowance[msg.sender] -= _amount */\n      dup3\n      dup3\n      sload\n      tag_69\n      swap2\n      swap1\n      tag_70\n      jump\t// in\n    tag_69:\n      swap3\n      pop\n      pop\n      dup2\n      swap1\n      sstore\n      pop\n        /* \"contracts/EWallet.sol\":2096:2355  if(msg.sender != walletOwner){... */\n    tag_62:\n        /* \"contracts/EWallet.sol\":2379:2391  bool success */\n      0x00\n        /* \"contracts/EWallet.sol\":2393:2416  bytes memory returnData */\n      dup1\n        /* \"contracts/EWallet.sol\":2420:2423  _to */\n      dup6\n        /* \"contracts/EWallet.sol\":2420:2428  _to.call */\n      0xffffffffffffffffffffffffffffffffffffffff\n      and\n        /* \"contracts/EWallet.sol\":2437:2444  _amount */\n      dup6\n        /* \"contracts/EWallet.sol\":2447:2455  _payload */\n      dup6\n        /* \"contracts/EWallet.sol\":2420:2456  _to.call{ value: _amount }(_payload) */\n      mload(0x40)\n      tag_71\n      swap2\n      swap1\n      tag_72\n      jump\t// in\n    tag_71:\n      0x00\n      mload(0x40)\n      dup1\n      dup4\n      sub\n      dup2\n      dup6\n      dup8\n      gas\n      call\n      swap3\n      pop\n      pop\n      pop\n      returndatasize\n      dup1\n      0x00\n      dup2\n      eq\n      tag_75\n      jumpi\n      mload(0x40)\n      swap2\n      pop\n      and(add(returndatasize, 0x3f), not(0x1f))\n      dup3\n      add\n      0x40\n      mstore\n      returndatasize\n      dup3\n      mstore\n      returndatasize\n      0x00\n      0x20\n      dup5\n      add\n      returndatacopy\n      jump(tag_74)\n    tag_75:\n      0x60\n      swap2\n      pop\n    tag_74:\n      pop\n        /* \"contracts/EWallet.sol\":2378:2456  (bool success, bytes memory returnData) = _to.call{ value: _amount }(_payload) */\n      swap2\n      pop\n      swap2\n      pop\n        /* \"contracts/EWallet.sol\":2475:2482  success */\n      dup2\n        /* \"contracts/EWallet.sol\":2467:2510  require(success, \"Call was not successful\") */\n      tag_76\n      jumpi\n      mload(0x40)\n      0x08c379a000000000000000000000000000000000000000000000000000000000\n      dup2\n      mstore\n      0x04\n      add\n      tag_77\n      swap1\n      tag_78\n      jump\t// in\n    tag_77:\n      mload(0x40)\n      dup1\n      swap2\n      sub\n      swap1\n      revert\n    tag_76:\n        /* \"contracts/EWallet.sol\":2527:2537  returnData */\n      dup1\n        /* \"contracts/EWallet.sol\":2520:2537  return returnData */\n      swap3\n      pop\n      pop\n      pop\n        /* \"contracts/EWallet.sol\":1909:2545  function transferFunds(address payable _to, uint _amount, bytes memory _payload) public returns(bytes memory) {... */\n      swap4\n      swap3\n      pop\n      pop\n      pop\n      jump\t// out\n        /* \"contracts/EWallet.sol\":251:285  address payable public walletOwner */\n    tag_30:\n      0x00\n      dup1\n      sload\n      swap1\n      0x0100\n      exp\n      swap1\n      div\n      0xffffffffffffffffffffffffffffffffffffffff\n      and\n      dup2\n      jump\t// out\n        /* \"contracts/EWallet.sol\":812:999  function setGuardian(address _guardian, bool _isGuardian) public {... */\n    tag_37:\n        /* \"contracts/EWallet.sol\":910:921  walletOwner */\n      0x00\n      dup1\n      sload\n      swap1\n      0x0100\n      exp\n      swap1\n      div\n      0xffffffffffffffffffffffffffffffffffffffff\n      and\n        /* \"contracts/EWallet.sol\":896:921  msg.sender == walletOwner */\n      0xffffffffffffffffffffffffffffffffffffffff\n      and\n        /* \"contracts/EWallet.sol\":896:906  msg.sender */\n      caller\n        /* \"contracts/EWallet.sol\":896:921  msg.sender == walletOwner */\n      0xffffffffffffffffffffffffffffffffffffffff\n      and\n      eq\n        /* \"contracts/EWallet.sol\":888:947  require(msg.sender == walletOwner, \"You are not the owner\") */\n      tag_80\n      jumpi\n      mload(0x40)\n      0x08c379a000000000000000000000000000000000000000000000000000000000\n      dup2\n      mstore\n      0x04\n      add\n      tag_81\n      swap1\n      tag_82\n      jump\t// in\n    tag_81:\n      mload(0x40)\n      dup1\n      swap2\n      sub\n      swap1\n      revert\n    tag_80:\n        /* \"contracts/EWallet.sol\":981:992  _isGuardian */\n      dup1\n        /* \"contracts/EWallet.sol\":958:967  guardians */\n      0x04\n        /* \"contracts/EWallet.sol\":958:978  guardians[_guardian] */\n      0x00\n        /* \"contracts/EWallet.sol\":968:977  _guardian */\n      dup5\n        /* \"contracts/EWallet.sol\":958:978  guardians[_guardian] */\n      0xffffffffffffffffffffffffffffffffffffffff\n      and\n      0xffffffffffffffffffffffffffffffffffffffff\n      and\n      dup2\n      mstore\n      0x20\n      add\n      swap1\n      dup2\n      mstore\n      0x20\n      add\n      0x00\n      keccak256\n      0x00\n        /* \"contracts/EWallet.sol\":958:992  guardians[_guardian] = _isGuardian */\n      0x0100\n      exp\n      dup2\n      sload\n      dup2\n      0xff\n      mul\n      not\n      and\n      swap1\n      dup4\n      iszero\n      iszero\n      mul\n      or\n      swap1\n      sstore\n      pop\n        /* \"contracts/EWallet.sol\":812:999  function setGuardian(address _guardian, bool _isGuardian) public {... */\n      pop\n      pop\n      jump\t// out\n        /* \"contracts/EWallet.sol\":1594:1903  function setAllowance(address _for, uint _amount) public {... */\n    tag_42:\n        /* \"contracts/EWallet.sol\":1684:1695  walletOwner */\n      0x00\n      dup1\n      sload\n      swap1\n      0x0100\n      exp\n      swap1\n      div\n      0xffffffffffffffffffffffffffffffffffffffff\n      and\n        /* \"contracts/EWallet.sol\":1670:1695  msg.sender == walletOwner */\n      0xffffffffffffffffffffffffffffffffffffffff\n      and\n        /* \"contracts/EWallet.sol\":1670:1680  msg.sender */\n      caller\n        /* \"contracts/EWallet.sol\":1670:1695  msg.sender == walletOwner */\n      0xffffffffffffffffffffffffffffffffffffffff\n      and\n      eq\n        /* \"contracts/EWallet.sol\":1662:1714  require(msg.sender == walletOwner, \"Not the owner!\") */\n      tag_84\n      jumpi\n      mload(0x40)\n      0x08c379a000000000000000000000000000000000000000000000000000000000\n      dup2\n      mstore\n      0x04\n      add\n      tag_85\n      swap1\n      tag_86\n      jump\t// in\n    tag_85:\n      mload(0x40)\n      dup1\n      swap2\n      sub\n      swap1\n      revert\n    tag_84:\n        /* \"contracts/EWallet.sol\":1742:1749  _amount */\n      dup1\n        /* \"contracts/EWallet.sol\":1724:1733  allowance */\n      0x02\n        /* \"contracts/EWallet.sol\":1724:1739  allowance[_for] */\n      0x00\n        /* \"contracts/EWallet.sol\":1734:1738  _for */\n      dup5\n        /* \"contracts/EWallet.sol\":1724:1739  allowance[_for] */\n      0xffffffffffffffffffffffffffffffffffffffff\n      and\n      0xffffffffffffffffffffffffffffffffffffffff\n      and\n      dup2\n      mstore\n      0x20\n      add\n      swap1\n      dup2\n      mstore\n      0x20\n      add\n      0x00\n      keccak256\n        /* \"contracts/EWallet.sol\":1724:1749  allowance[_for] = _amount */\n      dup2\n      swap1\n      sstore\n      pop\n        /* \"contracts/EWallet.sol\":1773:1774  0 */\n      0x00\n        /* \"contracts/EWallet.sol\":1763:1770  _amount */\n      dup2\n        /* \"contracts/EWallet.sol\":1763:1774  _amount > 0 */\n      gt\n        /* \"contracts/EWallet.sol\":1760:1895  if(_amount > 0){... */\n      iszero\n      tag_87\n      jumpi\n        /* \"contracts/EWallet.sol\":1813:1817  true */\n      0x01\n        /* \"contracts/EWallet.sol\":1789:1804  isAllowedToSend */\n      0x03\n        /* \"contracts/EWallet.sol\":1789:1810  isAllowedToSend[_for] */\n      0x00\n        /* \"contracts/EWallet.sol\":1805:1809  _for */\n      dup5\n        /* \"contracts/EWallet.sol\":1789:1810  isAllowedToSend[_for] */\n      0xffffffffffffffffffffffffffffffffffffffff\n      and\n      0xffffffffffffffffffffffffffffffffffffffff\n      and\n      dup2\n      mstore\n      0x20\n      add\n      swap1\n      dup2\n      mstore\n      0x20\n      add\n      0x00\n      keccak256\n      0x00\n        /* \"contracts/EWallet.sol\":1789:1817  isAllowedToSend[_for] = true */\n      0x0100\n      exp\n      dup2\n      sload\n      dup2\n      0xff\n      mul\n      not\n      and\n      swap1\n      dup4\n      iszero\n      iszero\n      mul\n      or\n      swap1\n      sstore\n      pop\n        /* \"contracts/EWallet.sol\":1760:1895  if(_amount > 0){... */\n      jump(tag_88)\n    tag_87:\n        /* \"contracts/EWallet.sol\":1879:1884  false */\n      0x00\n        /* \"contracts/EWallet.sol\":1855:1870  isAllowedToSend */\n      0x03\n        /* \"contracts/EWallet.sol\":1855:1876  isAllowedToSend[_for] */\n      0x00\n        /* \"contracts/EWallet.sol\":1871:1875  _for */\n      dup5\n        /* \"contracts/EWallet.sol\":1855:1876  isAllowedToSend[_for] */\n      0xffffffffffffffffffffffffffffffffffffffff\n      and\n      0xffffffffffffffffffffffffffffffffffffffff\n      and\n      dup2\n      mstore\n      0x20\n      add\n      swap1\n      dup2\n      mstore\n      0x20\n      add\n      0x00\n      keccak256\n      0x00\n        /* \"contracts/EWallet.sol\":1855:1884  isAllowedToSend[_for] = false */\n      0x0100\n      exp\n      dup2\n      sload\n      dup2\n      0xff\n      mul\n      not\n      and\n      swap1\n      dup4\n      iszero\n      iszero\n      mul\n      or\n      swap1\n      sstore\n      pop\n        /* \"contracts/EWallet.sol\":1760:1895  if(_amount > 0){... */\n    tag_88:\n        /* \"contracts/EWallet.sol\":1594:1903  function setAllowance(address _for, uint _amount) public {... */\n      pop\n      pop\n      jump\t// out\n        /* \"contracts/EWallet.sol\":322:364  mapping (address => uint) public allowance */\n    tag_46:\n      mstore(0x20, 0x02)\n      dup1\n      0x00\n      mstore\n      keccak256(0x00, 0x40)\n      0x00\n      swap2\n      pop\n      swap1\n      pop\n      sload\n      dup2\n      jump\t// out\n        /* \"contracts/EWallet.sol\":571:629  uint public constant confirmationFromGuardiansForReset = 3 */\n    tag_51:\n        /* \"contracts/EWallet.sol\":628:629  3 */\n      0x03\n        /* \"contracts/EWallet.sol\":571:629  uint public constant confirmationFromGuardiansForReset = 3 */\n      dup2\n      jump\t// out\n        /* \"contracts/EWallet.sol\":1005:1548  function proposeNewOwner(address payable _newOwner) public {... */\n    tag_57:\n        /* \"contracts/EWallet.sol\":1082:1091  guardians */\n      0x04\n        /* \"contracts/EWallet.sol\":1082:1103  guardians[msg.sender] */\n      0x00\n        /* \"contracts/EWallet.sol\":1092:1102  msg.sender */\n      caller\n        /* \"contracts/EWallet.sol\":1082:1103  guardians[msg.sender] */\n      0xffffffffffffffffffffffffffffffffffffffff\n      and\n      0xffffffffffffffffffffffffffffffffffffffff\n      and\n      dup2\n      mstore\n      0x20\n      add\n      swap1\n      dup2\n      mstore\n      0x20\n      add\n      0x00\n      keccak256\n      0x00\n      swap1\n      sload\n      swap1\n      0x0100\n      exp\n      swap1\n      div\n      0xff\n      and\n        /* \"contracts/EWallet.sol\":1074:1131  require(guardians[msg.sender], \"Only guardians allowed.\") */\n      tag_90\n      jumpi\n      mload(0x40)\n      0x08c379a000000000000000000000000000000000000000000000000000000000\n      dup2\n      mstore\n      0x04\n      add\n      tag_91\n      swap1\n      tag_92\n      jump\t// in\n    tag_91:\n      mload(0x40)\n      dup1\n      swap2\n      sub\n      swap1\n      revert\n    tag_90:\n        /* \"contracts/EWallet.sol\":1201:1206  false */\n      0x00\n        /* \"contracts/EWallet.sol\":1149:1206  nexOwnerGuardianVotedBool[_newOwner][msg.sender] == false */\n      iszero\n      iszero\n        /* \"contracts/EWallet.sol\":1149:1174  nexOwnerGuardianVotedBool */\n      0x05\n        /* \"contracts/EWallet.sol\":1149:1185  nexOwnerGuardianVotedBool[_newOwner] */\n      0x00\n        /* \"contracts/EWallet.sol\":1175:1184  _newOwner */\n      dup4\n        /* \"contracts/EWallet.sol\":1149:1185  nexOwnerGuardianVotedBool[_newOwner] */\n      0xffffffffffffffffffffffffffffffffffffffff\n      and\n      0xffffffffffffffffffffffffffffffffffffffff\n      and\n      dup2\n      mstore\n      0x20\n      add\n      swap1\n      dup2\n      mstore\n      0x20\n      add\n      0x00\n      keccak256\n        /* \"contracts/EWallet.sol\":1149:1197  nexOwnerGuardianVotedBool[_newOwner][msg.sender] */\n      0x00\n        /* \"contracts/EWallet.sol\":1186:1196  msg.sender */\n      caller\n        /* \"contracts/EWallet.sol\":1149:1197  nexOwnerGuardianVotedBool[_newOwner][msg.sender] */\n      0xffffffffffffffffffffffffffffffffffffffff\n      and\n      0xffffffffffffffffffffffffffffffffffffffff\n      and\n      dup2\n      mstore\n      0x20\n      add\n      swap1\n      dup2\n      mstore\n      0x20\n      add\n      0x00\n      keccak256\n      0x00\n      swap1\n      sload\n      swap1\n      0x0100\n      exp\n      swap1\n      div\n      0xff\n      and\n        /* \"contracts/EWallet.sol\":1149:1206  nexOwnerGuardianVotedBool[_newOwner][msg.sender] == false */\n      iszero\n      iszero\n      eq\n        /* \"contracts/EWallet.sol\":1141:1228  require(nexOwnerGuardianVotedBool[_newOwner][msg.sender] == false, \"You already voted\") */\n      tag_93\n      jumpi\n      mload(0x40)\n      0x08c379a000000000000000000000000000000000000000000000000000000000\n      dup2\n      mstore\n      0x04\n      add\n      tag_94\n      swap1\n      tag_95\n      jump\t// in\n    tag_94:\n      mload(0x40)\n      dup1\n      swap2\n      sub\n      swap1\n      revert\n    tag_93:\n        /* \"contracts/EWallet.sol\":1254:1263  nextOwner */\n      0x01\n      0x00\n      swap1\n      sload\n      swap1\n      0x0100\n      exp\n      swap1\n      div\n      0xffffffffffffffffffffffffffffffffffffffff\n      and\n        /* \"contracts/EWallet.sol\":1241:1263  _newOwner != nextOwner */\n      0xffffffffffffffffffffffffffffffffffffffff\n      and\n        /* \"contracts/EWallet.sol\":1241:1250  _newOwner */\n      dup2\n        /* \"contracts/EWallet.sol\":1241:1263  _newOwner != nextOwner */\n      0xffffffffffffffffffffffffffffffffffffffff\n      and\n      eq\n        /* \"contracts/EWallet.sol\":1238:1347  if(_newOwner != nextOwner) {... */\n      tag_96\n      jumpi\n        /* \"contracts/EWallet.sol\":1291:1300  _newOwner */\n      dup1\n        /* \"contracts/EWallet.sol\":1279:1288  nextOwner */\n      0x01\n      0x00\n        /* \"contracts/EWallet.sol\":1279:1300  nextOwner = _newOwner */\n      0x0100\n      exp\n      dup2\n      sload\n      dup2\n      0xffffffffffffffffffffffffffffffffffffffff\n      mul\n      not\n      and\n      swap1\n      dup4\n      0xffffffffffffffffffffffffffffffffffffffff\n      and\n      mul\n      or\n      swap1\n      sstore\n      pop\n        /* \"contracts/EWallet.sol\":1335:1336  0 */\n      0x00\n        /* \"contracts/EWallet.sol\":1314:1332  guardianResetCount */\n      0x06\n        /* \"contracts/EWallet.sol\":1314:1336  guardianResetCount = 0 */\n      dup2\n      swap1\n      sstore\n      pop\n        /* \"contracts/EWallet.sol\":1238:1347  if(_newOwner != nextOwner) {... */\n    tag_96:\n        /* \"contracts/EWallet.sol\":1357:1375  guardianResetCount */\n      0x06\n      0x00\n        /* \"contracts/EWallet.sol\":1357:1377  guardianResetCount++ */\n      dup2\n      sload\n      dup1\n      swap3\n      swap2\n      swap1\n      tag_97\n      swap1\n      tag_98\n      jump\t// in\n    tag_97:\n      swap2\n      swap1\n      pop\n      sstore\n      pop\n        /* \"contracts/EWallet.sol\":628:629  3 */\n      0x03\n        /* \"contracts/EWallet.sol\":1391:1409  guardianResetCount */\n      sload(0x06)\n        /* \"contracts/EWallet.sol\":1391:1446  guardianResetCount >= confirmationFromGuardiansForReset */\n      lt\n        /* \"contracts/EWallet.sol\":1388:1541  if(guardianResetCount >= confirmationFromGuardiansForReset){... */\n      tag_99\n      jumpi\n        /* \"contracts/EWallet.sol\":1475:1484  nextOwner */\n      0x01\n      0x00\n      swap1\n      sload\n      swap1\n      0x0100\n      exp\n      swap1\n      div\n      0xffffffffffffffffffffffffffffffffffffffff\n      and\n        /* \"contracts/EWallet.sol\":1461:1472  walletOwner */\n      0x00\n      dup1\n        /* \"contracts/EWallet.sol\":1461:1484  walletOwner = nextOwner */\n      0x0100\n      exp\n      dup2\n      sload\n      dup2\n      0xffffffffffffffffffffffffffffffffffffffff\n      mul\n      not\n      and\n      swap1\n      dup4\n      0xffffffffffffffffffffffffffffffffffffffff\n      and\n      mul\n      or\n      swap1\n      sstore\n      pop\n        /* \"contracts/EWallet.sol\":1527:1528  0 */\n      0x00\n        /* \"contracts/EWallet.sol\":1498:1507  nextOwner */\n      0x01\n      0x00\n        /* \"contracts/EWallet.sol\":1498:1530  nextOwner = payable (address(0)) */\n      0x0100\n      exp\n      dup2\n      sload\n      dup2\n      0xffffffffffffffffffffffffffffffffffffffff\n      mul\n      not\n      and\n      swap1\n      dup4\n      0xffffffffffffffffffffffffffffffffffffffff\n      and\n      mul\n      or\n      swap1\n      sstore\n      pop\n        /* \"contracts/EWallet.sol\":1388:1541  if(guardianResetCount >= confirmationFromGuardiansForReset){... */\n    tag_99:\n        /* \"contracts/EWallet.sol\":1005:1548  function proposeNewOwner(address payable _newOwner) public {... */\n      pop\n      jump\t// out\n        /* \"#utility.yul\":7:82   */\n    tag_100:\n        /* \"#utility.yul\":40:46   */\n      0x00\n        /* \"#utility.yul\":73:75   */\n      0x40\n        /* \"#utility.yul\":67:76   */\n      mload\n        /* \"#utility.yul\":57:76   */\n      swap1\n      pop\n        /* \"#utility.yul\":7:82   */\n      swap1\n      jump\t// out\n        /* \"#utility.yul\":88:205   */\n    tag_101:\n        /* \"#utility.yul\":197:198   */\n      0x00\n        /* \"#utility.yul\":194:195   */\n      dup1\n        /* \"#utility.yul\":187:199   */\n      revert\n        /* \"#utility.yul\":211:328   */\n    tag_102:\n        /* \"#utility.yul\":320:321   */\n      0x00\n        /* \"#utility.yul\":317:318   */\n      dup1\n        /* \"#utility.yul\":310:322   */\n      revert\n        /* \"#utility.yul\":334:460   */\n    tag_103:\n        /* \"#utility.yul\":371:378   */\n      0x00\n        /* \"#utility.yul\":411:453   */\n      0xffffffffffffffffffffffffffffffffffffffff\n        /* \"#utility.yul\":404:409   */\n      dup3\n        /* \"#utility.yul\":400:454   */\n      and\n        /* \"#utility.yul\":389:454   */\n      swap1\n      pop\n        /* \"#utility.yul\":334:460   */\n      swap2\n      swap1\n      pop\n      jump\t// out\n        /* \"#utility.yul\":466:562   */\n    tag_104:\n        /* \"#utility.yul\":503:510   */\n      0x00\n        /* \"#utility.yul\":532:556   */\n      tag_159\n        /* \"#utility.yul\":550:555   */\n      dup3\n        /* \"#utility.yul\":532:556   */\n      tag_103\n      jump\t// in\n    tag_159:\n        /* \"#utility.yul\":521:556   */\n      swap1\n      pop\n        /* \"#utility.yul\":466:562   */\n      swap2\n      swap1\n      pop\n      jump\t// out\n        /* \"#utility.yul\":568:690   */\n    tag_105:\n        /* \"#utility.yul\":641:665   */\n      tag_161\n        /* \"#utility.yul\":659:664   */\n      dup2\n        /* \"#utility.yul\":641:665   */\n      tag_104\n      jump\t// in\n    tag_161:\n        /* \"#utility.yul\":634:639   */\n      dup2\n        /* \"#utility.yul\":631:666   */\n      eq\n        /* \"#utility.yul\":621:684   */\n      tag_162\n      jumpi\n        /* \"#utility.yul\":680:681   */\n      0x00\n        /* \"#utility.yul\":677:678   */\n      dup1\n        /* \"#utility.yul\":670:682   */\n      revert\n        /* \"#utility.yul\":621:684   */\n    tag_162:\n        /* \"#utility.yul\":568:690   */\n      pop\n      jump\t// out\n        /* \"#utility.yul\":696:835   */\n    tag_106:\n        /* \"#utility.yul\":742:747   */\n      0x00\n        /* \"#utility.yul\":780:786   */\n      dup2\n        /* \"#utility.yul\":767:787   */\n      calldataload\n        /* \"#utility.yul\":758:787   */\n      swap1\n      pop\n        /* \"#utility.yul\":796:829   */\n      tag_164\n        /* \"#utility.yul\":823:828   */\n      dup2\n        /* \"#utility.yul\":796:829   */\n      tag_105\n      jump\t// in\n    tag_164:\n        /* \"#utility.yul\":696:835   */\n      swap3\n      swap2\n      pop\n      pop\n      jump\t// out\n        /* \"#utility.yul\":841:1170   */\n    tag_17:\n        /* \"#utility.yul\":900:906   */\n      0x00\n        /* \"#utility.yul\":949:951   */\n      0x20\n        /* \"#utility.yul\":937:946   */\n      dup3\n        /* \"#utility.yul\":928:935   */\n      dup5\n        /* \"#utility.yul\":924:947   */\n      sub\n        /* \"#utility.yul\":920:952   */\n      slt\n        /* \"#utility.yul\":917:1036   */\n      iszero\n      tag_166\n      jumpi\n        /* \"#utility.yul\":955:1034   */\n      tag_167\n      tag_101\n      jump\t// in\n    tag_167:\n        /* \"#utility.yul\":917:1036   */\n    tag_166:\n        /* \"#utility.yul\":1075:1076   */\n      0x00\n        /* \"#utility.yul\":1100:1153   */\n      tag_168\n        /* \"#utility.yul\":1145:1152   */\n      dup5\n        /* \"#utility.yul\":1136:1142   */\n      dup3\n        /* \"#utility.yul\":1125:1134   */\n      dup6\n        /* \"#utility.yul\":1121:1143   */\n      add\n        /* \"#utility.yul\":1100:1153   */\n      tag_106\n      jump\t// in\n    tag_168:\n        /* \"#utility.yul\":1090:1153   */\n      swap2\n      pop\n        /* \"#utility.yul\":1046:1163   */\n      pop\n        /* \"#utility.yul\":841:1170   */\n      swap3\n      swap2\n      pop\n      pop\n      jump\t// out\n        /* \"#utility.yul\":1176:1266   */\n    tag_107:\n        /* \"#utility.yul\":1210:1217   */\n      0x00\n        /* \"#utility.yul\":1253:1258   */\n      dup2\n        /* \"#utility.yul\":1246:1259   */\n      iszero\n        /* \"#utility.yul\":1239:1260   */\n      iszero\n        /* \"#utility.yul\":1228:1260   */\n      swap1\n      pop\n        /* \"#utility.yul\":1176:1266   */\n      swap2\n      swap1\n      pop\n      jump\t// out\n        /* \"#utility.yul\":1272:1381   */\n    tag_108:\n        /* \"#utility.yul\":1353:1374   */\n      tag_171\n        /* \"#utility.yul\":1368:1373   */\n      dup2\n        /* \"#utility.yul\":1353:1374   */\n      tag_107\n      jump\t// in\n    tag_171:\n        /* \"#utility.yul\":1348:1351   */\n      dup3\n        /* \"#utility.yul\":1341:1375   */\n      mstore\n        /* \"#utility.yul\":1272:1381   */\n      pop\n      pop\n      jump\t// out\n        /* \"#utility.yul\":1387:1597   */\n    tag_20:\n        /* \"#utility.yul\":1474:1478   */\n      0x00\n        /* \"#utility.yul\":1512:1514   */\n      0x20\n        /* \"#utility.yul\":1501:1510   */\n      dup3\n        /* \"#utility.yul\":1497:1515   */\n      add\n        /* \"#utility.yul\":1489:1515   */\n      swap1\n      pop\n        /* \"#utility.yul\":1525:1590   */\n      tag_173\n        /* \"#utility.yul\":1587:1588   */\n      0x00\n        /* \"#utility.yul\":1576:1585   */\n      dup4\n        /* \"#utility.yul\":1572:1589   */\n      add\n        /* \"#utility.yul\":1563:1569   */\n      dup5\n        /* \"#utility.yul\":1525:1590   */\n      tag_108\n      jump\t// in\n    tag_173:\n        /* \"#utility.yul\":1387:1597   */\n      swap3\n      swap2\n      pop\n      pop\n      jump\t// out\n        /* \"#utility.yul\":1603:1707   */\n    tag_109:\n        /* \"#utility.yul\":1648:1655   */\n      0x00\n        /* \"#utility.yul\":1677:1701   */\n      tag_175\n        /* \"#utility.yul\":1695:1700   */\n      dup3\n        /* \"#utility.yul\":1677:1701   */\n      tag_103\n      jump\t// in\n    tag_175:\n        /* \"#utility.yul\":1666:1701   */\n      swap1\n      pop\n        /* \"#utility.yul\":1603:1707   */\n      swap2\n      swap1\n      pop\n      jump\t// out\n        /* \"#utility.yul\":1713:1851   */\n    tag_110:\n        /* \"#utility.yul\":1794:1826   */\n      tag_177\n        /* \"#utility.yul\":1820:1825   */\n      dup2\n        /* \"#utility.yul\":1794:1826   */\n      tag_109\n      jump\t// in\n    tag_177:\n        /* \"#utility.yul\":1787:1792   */\n      dup2\n        /* \"#utility.yul\":1784:1827   */\n      eq\n        /* \"#utility.yul\":1774:1845   */\n      tag_178\n      jumpi\n        /* \"#utility.yul\":1841:1842   */\n      0x00\n        /* \"#utility.yul\":1838:1839   */\n      dup1\n        /* \"#utility.yul\":1831:1843   */\n      revert\n        /* \"#utility.yul\":1774:1845   */\n    tag_178:\n        /* \"#utility.yul\":1713:1851   */\n      pop\n      jump\t// out\n        /* \"#utility.yul\":1857:2012   */\n    tag_111:\n        /* \"#utility.yul\":1911:1916   */\n      0x00\n        /* \"#utility.yul\":1949:1955   */\n      dup2\n        /* \"#utility.yul\":1936:1956   */\n      calldataload\n        /* \"#utility.yul\":1927:1956   */\n      swap1\n      pop\n        /* \"#utility.yul\":1965:2006   */\n      tag_180\n        /* \"#utility.yul\":2000:2005   */\n      dup2\n        /* \"#utility.yul\":1965:2006   */\n      tag_110\n      jump\t// in\n    tag_180:\n        /* \"#utility.yul\":1857:2012   */\n      swap3\n      swap2\n      pop\n      pop\n      jump\t// out\n        /* \"#utility.yul\":2018:2095   */\n    tag_112:\n        /* \"#utility.yul\":2055:2062   */\n      0x00\n        /* \"#utility.yul\":2084:2089   */\n      dup2\n        /* \"#utility.yul\":2073:2089   */\n      swap1\n      pop\n        /* \"#utility.yul\":2018:2095   */\n      swap2\n      swap1\n      pop\n      jump\t// out\n        /* \"#utility.yul\":2101:2223   */\n    tag_113:\n        /* \"#utility.yul\":2174:2198   */\n      tag_183\n        /* \"#utility.yul\":2192:2197   */\n      dup2\n        /* \"#utility.yul\":2174:2198   */\n      tag_112\n      jump\t// in\n    tag_183:\n        /* \"#utility.yul\":2167:2172   */\n      dup2\n        /* \"#utility.yul\":2164:2199   */\n      eq\n        /* \"#utility.yul\":2154:2217   */\n      tag_184\n      jumpi\n        /* \"#utility.yul\":2213:2214   */\n      0x00\n        /* \"#utility.yul\":2210:2211   */\n      dup1\n        /* \"#utility.yul\":2203:2215   */\n      revert\n        /* \"#utility.yul\":2154:2217   */\n    tag_184:\n        /* \"#utility.yul\":2101:2223   */\n      pop\n      jump\t// out\n        /* \"#utility.yul\":2229:2368   */\n    tag_114:\n        /* \"#utility.yul\":2275:2280   */\n      0x00\n        /* \"#utility.yul\":2313:2319   */\n      dup2\n        /* \"#utility.yul\":2300:2320   */\n      calldataload\n        /* \"#utility.yul\":2291:2320   */\n      swap1\n      pop\n        /* \"#utility.yul\":2329:2362   */\n      tag_186\n        /* \"#utility.yul\":2356:2361   */\n      dup2\n        /* \"#utility.yul\":2329:2362   */\n      tag_113\n      jump\t// in\n    tag_186:\n        /* \"#utility.yul\":2229:2368   */\n      swap3\n      swap2\n      pop\n      pop\n      jump\t// out\n        /* \"#utility.yul\":2374:2491   */\n    tag_115:\n        /* \"#utility.yul\":2483:2484   */\n      0x00\n        /* \"#utility.yul\":2480:2481   */\n      dup1\n        /* \"#utility.yul\":2473:2485   */\n      revert\n        /* \"#utility.yul\":2497:2614   */\n    tag_116:\n        /* \"#utility.yul\":2606:2607   */\n      0x00\n        /* \"#utility.yul\":2603:2604   */\n      dup1\n        /* \"#utility.yul\":2596:2608   */\n      revert\n        /* \"#utility.yul\":2620:2722   */\n    tag_117:\n        /* \"#utility.yul\":2661:2667   */\n      0x00\n        /* \"#utility.yul\":2712:2714   */\n      0x1f\n        /* \"#utility.yul\":2708:2715   */\n      not\n        /* \"#utility.yul\":2703:2705   */\n      0x1f\n        /* \"#utility.yul\":2696:2701   */\n      dup4\n        /* \"#utility.yul\":2692:2706   */\n      add\n        /* \"#utility.yul\":2688:2716   */\n      and\n        /* \"#utility.yul\":2678:2716   */\n      swap1\n      pop\n        /* \"#utility.yul\":2620:2722   */\n      swap2\n      swap1\n      pop\n      jump\t// out\n        /* \"#utility.yul\":2728:2908   */\n    tag_118:\n        /* \"#utility.yul\":2776:2853   */\n      0x4e487b7100000000000000000000000000000000000000000000000000000000\n        /* \"#utility.yul\":2773:2774   */\n      0x00\n        /* \"#utility.yul\":2766:2854   */\n      mstore\n        /* \"#utility.yul\":2873:2877   */\n      0x41\n        /* \"#utility.yul\":2870:2871   */\n      0x04\n        /* \"#utility.yul\":2863:2878   */\n      mstore\n        /* \"#utility.yul\":2897:2901   */\n      0x24\n        /* \"#utility.yul\":2894:2895   */\n      0x00\n        /* \"#utility.yul\":2887:2902   */\n      revert\n        /* \"#utility.yul\":2914:3195   */\n    tag_119:\n        /* \"#utility.yul\":2997:3024   */\n      tag_192\n        /* \"#utility.yul\":3019:3023   */\n      dup3\n        /* \"#utility.yul\":2997:3024   */\n      tag_117\n      jump\t// in\n    tag_192:\n        /* \"#utility.yul\":2989:2995   */\n      dup2\n        /* \"#utility.yul\":2985:3025   */\n      add\n        /* \"#utility.yul\":3127:3133   */\n      dup2\n        /* \"#utility.yul\":3115:3125   */\n      dup2\n        /* \"#utility.yul\":3112:3134   */\n      lt\n        /* \"#utility.yul\":3091:3109   */\n      0xffffffffffffffff\n        /* \"#utility.yul\":3079:3089   */\n      dup3\n        /* \"#utility.yul\":3076:3110   */\n      gt\n        /* \"#utility.yul\":3073:3135   */\n      or\n        /* \"#utility.yul\":3070:3158   */\n      iszero\n      tag_193\n      jumpi\n        /* \"#utility.yul\":3138:3156   */\n      tag_194\n      tag_118\n      jump\t// in\n    tag_194:\n        /* \"#utility.yul\":3070:3158   */\n    tag_193:\n        /* \"#utility.yul\":3178:3188   */\n      dup1\n        /* \"#utility.yul\":3174:3176   */\n      0x40\n        /* \"#utility.yul\":3167:3189   */\n      mstore\n        /* \"#utility.yul\":2957:3195   */\n      pop\n        /* \"#utility.yul\":2914:3195   */\n      pop\n      pop\n      jump\t// out\n        /* \"#utility.yul\":3201:3330   */\n    tag_120:\n        /* \"#utility.yul\":3235:3241   */\n      0x00\n        /* \"#utility.yul\":3262:3282   */\n      tag_196\n      tag_100\n      jump\t// in\n    tag_196:\n        /* \"#utility.yul\":3252:3282   */\n      swap1\n      pop\n        /* \"#utility.yul\":3291:3324   */\n      tag_197\n        /* \"#utility.yul\":3319:3323   */\n      dup3\n        /* \"#utility.yul\":3311:3317   */\n      dup3\n        /* \"#utility.yul\":3291:3324   */\n      tag_119\n      jump\t// in\n    tag_197:\n        /* \"#utility.yul\":3201:3330   */\n      swap2\n      swap1\n      pop\n      jump\t// out\n        /* \"#utility.yul\":3336:3643   */\n    tag_121:\n        /* \"#utility.yul\":3397:3401   */\n      0x00\n        /* \"#utility.yul\":3487:3505   */\n      0xffffffffffffffff\n        /* \"#utility.yul\":3479:3485   */\n      dup3\n        /* \"#utility.yul\":3476:3506   */\n      gt\n        /* \"#utility.yul\":3473:3529   */\n      iszero\n      tag_199\n      jumpi\n        /* \"#utility.yul\":3509:3527   */\n      tag_200\n      tag_118\n      jump\t// in\n    tag_200:\n        /* \"#utility.yul\":3473:3529   */\n    tag_199:\n        /* \"#utility.yul\":3547:3576   */\n      tag_201\n        /* \"#utility.yul\":3569:3575   */\n      dup3\n        /* \"#utility.yul\":3547:3576   */\n      tag_117\n      jump\t// in\n    tag_201:\n        /* \"#utility.yul\":3539:3576   */\n      swap1\n      pop\n        /* \"#utility.yul\":3631:3635   */\n      0x20\n        /* \"#utility.yul\":3625:3629   */\n      dup2\n        /* \"#utility.yul\":3621:3636   */\n      add\n        /* \"#utility.yul\":3613:3636   */\n      swap1\n      pop\n        /* \"#utility.yul\":3336:3643   */\n      swap2\n      swap1\n      pop\n      jump\t// out\n        /* \"#utility.yul\":3649:3795   */\n    tag_122:\n        /* \"#utility.yul\":3746:3752   */\n      dup3\n        /* \"#utility.yul\":3741:3744   */\n      dup2\n        /* \"#utility.yul\":3736:3739   */\n      dup4\n        /* \"#utility.yul\":3723:3753   */\n      calldatacopy\n        /* \"#utility.yul\":3787:3788   */\n      0x00\n        /* \"#utility.yul\":3778:3784   */\n      dup4\n        /* \"#utility.yul\":3773:3776   */\n      dup4\n        /* \"#utility.yul\":3769:3785   */\n      add\n        /* \"#utility.yul\":3762:3789   */\n      mstore\n        /* \"#utility.yul\":3649:3795   */\n      pop\n      pop\n      pop\n      jump\t// out\n        /* \"#utility.yul\":3801:4224   */\n    tag_123:\n        /* \"#utility.yul\":3878:3883   */\n      0x00\n        /* \"#utility.yul\":3903:3968   */\n      tag_204\n        /* \"#utility.yul\":3919:3967   */\n      tag_205\n        /* \"#utility.yul\":3960:3966   */\n      dup5\n        /* \"#utility.yul\":3919:3967   */\n      tag_121\n      jump\t// in\n    tag_205:\n        /* \"#utility.yul\":3903:3968   */\n      tag_120\n      jump\t// in\n    tag_204:\n        /* \"#utility.yul\":3894:3968   */\n      swap1\n      pop\n        /* \"#utility.yul\":3991:3997   */\n      dup3\n        /* \"#utility.yul\":3984:3989   */\n      dup2\n        /* \"#utility.yul\":3977:3998   */\n      mstore\n        /* \"#utility.yul\":4029:4033   */\n      0x20\n        /* \"#utility.yul\":4022:4027   */\n      dup2\n        /* \"#utility.yul\":4018:4034   */\n      add\n        /* \"#utility.yul\":4067:4070   */\n      dup5\n        /* \"#utility.yul\":4058:4064   */\n      dup5\n        /* \"#utility.yul\":4053:4056   */\n      dup5\n        /* \"#utility.yul\":4049:4065   */\n      add\n        /* \"#utility.yul\":4046:4071   */\n      gt\n        /* \"#utility.yul\":4043:4155   */\n      iszero\n      tag_206\n      jumpi\n        /* \"#utility.yul\":4074:4153   */\n      tag_207\n      tag_116\n      jump\t// in\n    tag_207:\n        /* \"#utility.yul\":4043:4155   */\n    tag_206:\n        /* \"#utility.yul\":4164:4218   */\n      tag_208\n        /* \"#utility.yul\":4211:4217   */\n      dup5\n        /* \"#utility.yul\":4206:4209   */\n      dup3\n        /* \"#utility.yul\":4201:4204   */\n      dup6\n        /* \"#utility.yul\":4164:4218   */\n      tag_122\n      jump\t// in\n    tag_208:\n        /* \"#utility.yul\":3884:4224   */\n      pop\n        /* \"#utility.yul\":3801:4224   */\n      swap4\n      swap3\n      pop\n      pop\n      pop\n      jump\t// out\n        /* \"#utility.yul\":4243:4581   */\n    tag_124:\n        /* \"#utility.yul\":4298:4303   */\n      0x00\n        /* \"#utility.yul\":4347:4350   */\n      dup3\n        /* \"#utility.yul\":4340:4344   */\n      0x1f\n        /* \"#utility.yul\":4332:4338   */\n      dup4\n        /* \"#utility.yul\":4328:4345   */\n      add\n        /* \"#utility.yul\":4324:4351   */\n      slt\n        /* \"#utility.yul\":4314:4436   */\n      tag_210\n      jumpi\n        /* \"#utility.yul\":4355:4434   */\n      tag_211\n      tag_115\n      jump\t// in\n    tag_211:\n        /* \"#utility.yul\":4314:4436   */\n    tag_210:\n        /* \"#utility.yul\":4472:4478   */\n      dup2\n        /* \"#utility.yul\":4459:4479   */\n      calldataload\n        /* \"#utility.yul\":4497:4575   */\n      tag_212\n        /* \"#utility.yul\":4571:4574   */\n      dup5\n        /* \"#utility.yul\":4563:4569   */\n      dup3\n        /* \"#utility.yul\":4556:4560   */\n      0x20\n        /* \"#utility.yul\":4548:4554   */\n      dup7\n        /* \"#utility.yul\":4544:4561   */\n      add\n        /* \"#utility.yul\":4497:4575   */\n      tag_123\n      jump\t// in\n    tag_212:\n        /* \"#utility.yul\":4488:4575   */\n      swap2\n      pop\n        /* \"#utility.yul\":4304:4581   */\n      pop\n        /* \"#utility.yul\":4243:4581   */\n      swap3\n      swap2\n      pop\n      pop\n      jump\t// out\n        /* \"#utility.yul\":4587:5400   */\n    tag_24:\n        /* \"#utility.yul\":4681:4687   */\n      0x00\n        /* \"#utility.yul\":4689:4695   */\n      dup1\n        /* \"#utility.yul\":4697:4703   */\n      0x00\n        /* \"#utility.yul\":4746:4748   */\n      0x60\n        /* \"#utility.yul\":4734:4743   */\n      dup5\n        /* \"#utility.yul\":4725:4732   */\n      dup7\n        /* \"#utility.yul\":4721:4744   */\n      sub\n        /* \"#utility.yul\":4717:4749   */\n      slt\n        /* \"#utility.yul\":4714:4833   */\n      iszero\n      tag_214\n      jumpi\n        /* \"#utility.yul\":4752:4831   */\n      tag_215\n      tag_101\n      jump\t// in\n    tag_215:\n        /* \"#utility.yul\":4714:4833   */\n    tag_214:\n        /* \"#utility.yul\":4872:4873   */\n      0x00\n        /* \"#utility.yul\":4897:4958   */\n      tag_216\n        /* \"#utility.yul\":4950:4957   */\n      dup7\n        /* \"#utility.yul\":4941:4947   */\n      dup3\n        /* \"#utility.yul\":4930:4939   */\n      dup8\n        /* \"#utility.yul\":4926:4948   */\n      add\n        /* \"#utility.yul\":4897:4958   */\n      tag_111\n      jump\t// in\n    tag_216:\n        /* \"#utility.yul\":4887:4958   */\n      swap4\n      pop\n        /* \"#utility.yul\":4843:4968   */\n      pop\n        /* \"#utility.yul\":5007:5009   */\n      0x20\n        /* \"#utility.yul\":5033:5086   */\n      tag_217\n        /* \"#utility.yul\":5078:5085   */\n      dup7\n        /* \"#utility.yul\":5069:5075   */\n      dup3\n        /* \"#utility.yul\":5058:5067   */\n      dup8\n        /* \"#utility.yul\":5054:5076   */\n      add\n        /* \"#utility.yul\":5033:5086   */\n      tag_114\n      jump\t// in\n    tag_217:\n        /* \"#utility.yul\":5023:5086   */\n      swap3\n      pop\n        /* \"#utility.yul\":4978:5096   */\n      pop\n        /* \"#utility.yul\":5163:5165   */\n      0x40\n        /* \"#utility.yul\":5152:5161   */\n      dup5\n        /* \"#utility.yul\":5148:5166   */\n      add\n        /* \"#utility.yul\":5135:5167   */\n      calldataload\n        /* \"#utility.yul\":5194:5212   */\n      0xffffffffffffffff\n        /* \"#utility.yul\":5186:5192   */\n      dup2\n        /* \"#utility.yul\":5183:5213   */\n      gt\n        /* \"#utility.yul\":5180:5297   */\n      iszero\n      tag_218\n      jumpi\n        /* \"#utility.yul\":5216:5295   */\n      tag_219\n      tag_102\n      jump\t// in\n    tag_219:\n        /* \"#utility.yul\":5180:5297   */\n    tag_218:\n        /* \"#utility.yul\":5321:5383   */\n      tag_220\n        /* \"#utility.yul\":5375:5382   */\n      dup7\n        /* \"#utility.yul\":5366:5372   */\n      dup3\n        /* \"#utility.yul\":5355:5364   */\n      dup8\n        /* \"#utility.yul\":5351:5373   */\n      add\n        /* \"#utility.yul\":5321:5383   */\n      tag_124\n      jump\t// in\n    tag_220:\n        /* \"#utility.yul\":5311:5383   */\n      swap2\n      pop\n        /* \"#utility.yul\":5106:5393   */\n      pop\n        /* \"#utility.yul\":4587:5400   */\n      swap3\n      pop\n      swap3\n      pop\n      swap3\n      jump\t// out\n        /* \"#utility.yul\":5406:5504   */\n    tag_125:\n        /* \"#utility.yul\":5457:5463   */\n      0x00\n        /* \"#utility.yul\":5491:5496   */\n      dup2\n        /* \"#utility.yul\":5485:5497   */\n      mload\n        /* \"#utility.yul\":5475:5497   */\n      swap1\n      pop\n        /* \"#utility.yul\":5406:5504   */\n      swap2\n      swap1\n      pop\n      jump\t// out\n        /* \"#utility.yul\":5510:5678   */\n    tag_126:\n        /* \"#utility.yul\":5593:5604   */\n      0x00\n        /* \"#utility.yul\":5627:5633   */\n      dup3\n        /* \"#utility.yul\":5622:5625   */\n      dup3\n        /* \"#utility.yul\":5615:5634   */\n      mstore\n        /* \"#utility.yul\":5667:5671   */\n      0x20\n        /* \"#utility.yul\":5662:5665   */\n      dup3\n        /* \"#utility.yul\":5658:5672   */\n      add\n        /* \"#utility.yul\":5643:5672   */\n      swap1\n      pop\n        /* \"#utility.yul\":5510:5678   */\n      swap3\n      swap2\n      pop\n      pop\n      jump\t// out\n        /* \"#utility.yul\":5684:5930   */\n    tag_127:\n        /* \"#utility.yul\":5765:5766   */\n      0x00\n        /* \"#utility.yul\":5775:5888   */\n    tag_224:\n        /* \"#utility.yul\":5789:5795   */\n      dup4\n        /* \"#utility.yul\":5786:5787   */\n      dup2\n        /* \"#utility.yul\":5783:5796   */\n      lt\n        /* \"#utility.yul\":5775:5888   */\n      iszero\n      tag_226\n      jumpi\n        /* \"#utility.yul\":5874:5875   */\n      dup1\n        /* \"#utility.yul\":5869:5872   */\n      dup3\n        /* \"#utility.yul\":5865:5876   */\n      add\n        /* \"#utility.yul\":5859:5877   */\n      mload\n        /* \"#utility.yul\":5855:5856   */\n      dup2\n        /* \"#utility.yul\":5850:5853   */\n      dup5\n        /* \"#utility.yul\":5846:5857   */\n      add\n        /* \"#utility.yul\":5839:5878   */\n      mstore\n        /* \"#utility.yul\":5811:5813   */\n      0x20\n        /* \"#utility.yul\":5808:5809   */\n      dup2\n        /* \"#utility.yul\":5804:5814   */\n      add\n        /* \"#utility.yul\":5799:5814   */\n      swap1\n      pop\n        /* \"#utility.yul\":5775:5888   */\n      jump(tag_224)\n    tag_226:\n        /* \"#utility.yul\":5922:5923   */\n      0x00\n        /* \"#utility.yul\":5913:5919   */\n      dup5\n        /* \"#utility.yul\":5908:5911   */\n      dup5\n        /* \"#utility.yul\":5904:5920   */\n      add\n        /* \"#utility.yul\":5897:5924   */\n      mstore\n        /* \"#utility.yul\":5746:5930   */\n      pop\n        /* \"#utility.yul\":5684:5930   */\n      pop\n      pop\n      pop\n      jump\t// out\n        /* \"#utility.yul\":5936:6309   */\n    tag_128:\n        /* \"#utility.yul\":6022:6025   */\n      0x00\n        /* \"#utility.yul\":6050:6088   */\n      tag_228\n        /* \"#utility.yul\":6082:6087   */\n      dup3\n        /* \"#utility.yul\":6050:6088   */\n      tag_125\n      jump\t// in\n    tag_228:\n        /* \"#utility.yul\":6104:6174   */\n      tag_229\n        /* \"#utility.yul\":6167:6173   */\n      dup2\n        /* \"#utility.yul\":6162:6165   */\n      dup6\n        /* \"#utility.yul\":6104:6174   */\n      tag_126\n      jump\t// in\n    tag_229:\n        /* \"#utility.yul\":6097:6174   */\n      swap4\n      pop\n        /* \"#utility.yul\":6183:6248   */\n      tag_230\n        /* \"#utility.yul\":6241:6247   */\n      dup2\n        /* \"#utility.yul\":6236:6239   */\n      dup6\n        /* \"#utility.yul\":6229:6233   */\n      0x20\n        /* \"#utility.yul\":6222:6227   */\n      dup7\n        /* \"#utility.yul\":6218:6234   */\n      add\n        /* \"#utility.yul\":6183:6248   */\n      tag_127\n      jump\t// in\n    tag_230:\n        /* \"#utility.yul\":6273:6302   */\n      tag_231\n        /* \"#utility.yul\":6295:6301   */\n      dup2\n        /* \"#utility.yul\":6273:6302   */\n      tag_117\n      jump\t// in\n    tag_231:\n        /* \"#utility.yul\":6268:6271   */\n      dup5\n        /* \"#utility.yul\":6264:6303   */\n      add\n        /* \"#utility.yul\":6257:6303   */\n      swap2\n      pop\n        /* \"#utility.yul\":6026:6309   */\n      pop\n        /* \"#utility.yul\":5936:6309   */\n      swap3\n      swap2\n      pop\n      pop\n      jump\t// out\n        /* \"#utility.yul\":6315:6624   */\n    tag_27:\n        /* \"#utility.yul\":6426:6430   */\n      0x00\n        /* \"#utility.yul\":6464:6466   */\n      0x20\n        /* \"#utility.yul\":6453:6462   */\n      dup3\n        /* \"#utility.yul\":6449:6467   */\n      add\n        /* \"#utility.yul\":6441:6467   */\n      swap1\n      pop\n        /* \"#utility.yul\":6513:6522   */\n      dup2\n        /* \"#utility.yul\":6507:6511   */\n      dup2\n        /* \"#utility.yul\":6503:6523   */\n      sub\n        /* \"#utility.yul\":6499:6500   */\n      0x00\n        /* \"#utility.yul\":6488:6497   */\n      dup4\n        /* \"#utility.yul\":6484:6501   */\n      add\n        /* \"#utility.yul\":6477:6524   */\n      mstore\n        /* \"#utility.yul\":6541:6617   */\n      tag_233\n        /* \"#utility.yul\":6612:6616   */\n      dup2\n        /* \"#utility.yul\":6603:6609   */\n      dup5\n        /* \"#utility.yul\":6541:6617   */\n      tag_128\n      jump\t// in\n    tag_233:\n        /* \"#utility.yul\":6533:6617   */\n      swap1\n      pop\n        /* \"#utility.yul\":6315:6624   */\n      swap3\n      swap2\n      pop\n      pop\n      jump\t// out\n        /* \"#utility.yul\":6630:6772   */\n    tag_129:\n        /* \"#utility.yul\":6733:6765   */\n      tag_235\n        /* \"#utility.yul\":6759:6764   */\n      dup2\n        /* \"#utility.yul\":6733:6765   */\n      tag_109\n      jump\t// in\n    tag_235:\n        /* \"#utility.yul\":6728:6731   */\n      dup3\n        /* \"#utility.yul\":6721:6766   */\n      mstore\n        /* \"#utility.yul\":6630:6772   */\n      pop\n      pop\n      jump\t// out\n        /* \"#utility.yul\":6778:7032   */\n    tag_32:\n        /* \"#utility.yul\":6887:6891   */\n      0x00\n        /* \"#utility.yul\":6925:6927   */\n      0x20\n        /* \"#utility.yul\":6914:6923   */\n      dup3\n        /* \"#utility.yul\":6910:6928   */\n      add\n        /* \"#utility.yul\":6902:6928   */\n      swap1\n      pop\n        /* \"#utility.yul\":6938:7025   */\n      tag_237\n        /* \"#utility.yul\":7022:7023   */\n      0x00\n        /* \"#utility.yul\":7011:7020   */\n      dup4\n        /* \"#utility.yul\":7007:7024   */\n      add\n        /* \"#utility.yul\":6998:7004   */\n      dup5\n        /* \"#utility.yul\":6938:7025   */\n      tag_129\n      jump\t// in\n    tag_237:\n        /* \"#utility.yul\":6778:7032   */\n      swap3\n      swap2\n      pop\n      pop\n      jump\t// out\n        /* \"#utility.yul\":7038:7154   */\n    tag_130:\n        /* \"#utility.yul\":7108:7129   */\n      tag_239\n        /* \"#utility.yul\":7123:7128   */\n      dup2\n        /* \"#utility.yul\":7108:7129   */\n      tag_107\n      jump\t// in\n    tag_239:\n        /* \"#utility.yul\":7101:7106   */\n      dup2\n        /* \"#utility.yul\":7098:7130   */\n      eq\n        /* \"#utility.yul\":7088:7148   */\n      tag_240\n      jumpi\n        /* \"#utility.yul\":7144:7145   */\n      0x00\n        /* \"#utility.yul\":7141:7142   */\n      dup1\n        /* \"#utility.yul\":7134:7146   */\n      revert\n        /* \"#utility.yul\":7088:7148   */\n    tag_240:\n        /* \"#utility.yul\":7038:7154   */\n      pop\n      jump\t// out\n        /* \"#utility.yul\":7160:7293   */\n    tag_131:\n        /* \"#utility.yul\":7203:7208   */\n      0x00\n        /* \"#utility.yul\":7241:7247   */\n      dup2\n        /* \"#utility.yul\":7228:7248   */\n      calldataload\n        /* \"#utility.yul\":7219:7248   */\n      swap1\n      pop\n        /* \"#utility.yul\":7257:7287   */\n      tag_242\n        /* \"#utility.yul\":7281:7286   */\n      dup2\n        /* \"#utility.yul\":7257:7287   */\n      tag_130\n      jump\t// in\n    tag_242:\n        /* \"#utility.yul\":7160:7293   */\n      swap3\n      swap2\n      pop\n      pop\n      jump\t// out\n        /* \"#utility.yul\":7299:7767   */\n    tag_36:\n        /* \"#utility.yul\":7364:7370   */\n      0x00\n        /* \"#utility.yul\":7372:7378   */\n      dup1\n        /* \"#utility.yul\":7421:7423   */\n      0x40\n        /* \"#utility.yul\":7409:7418   */\n      dup4\n        /* \"#utility.yul\":7400:7407   */\n      dup6\n        /* \"#utility.yul\":7396:7419   */\n      sub\n        /* \"#utility.yul\":7392:7424   */\n      slt\n        /* \"#utility.yul\":7389:7508   */\n      iszero\n      tag_244\n      jumpi\n        /* \"#utility.yul\":7427:7506   */\n      tag_245\n      tag_101\n      jump\t// in\n    tag_245:\n        /* \"#utility.yul\":7389:7508   */\n    tag_244:\n        /* \"#utility.yul\":7547:7548   */\n      0x00\n        /* \"#utility.yul\":7572:7625   */\n      tag_246\n        /* \"#utility.yul\":7617:7624   */\n      dup6\n        /* \"#utility.yul\":7608:7614   */\n      dup3\n        /* \"#utility.yul\":7597:7606   */\n      dup7\n        /* \"#utility.yul\":7593:7615   */\n      add\n        /* \"#utility.yul\":7572:7625   */\n      tag_106\n      jump\t// in\n    tag_246:\n        /* \"#utility.yul\":7562:7625   */\n      swap3\n      pop\n        /* \"#utility.yul\":7518:7635   */\n      pop\n        /* \"#utility.yul\":7674:7676   */\n      0x20\n        /* \"#utility.yul\":7700:7750   */\n      tag_247\n        /* \"#utility.yul\":7742:7749   */\n      dup6\n        /* \"#utility.yul\":7733:7739   */\n      dup3\n        /* \"#utility.yul\":7722:7731   */\n      dup7\n        /* \"#utility.yul\":7718:7740   */\n      add\n        /* \"#utility.yul\":7700:7750   */\n      tag_131\n      jump\t// in\n    tag_247:\n        /* \"#utility.yul\":7690:7750   */\n      swap2\n      pop\n        /* \"#utility.yul\":7645:7760   */\n      pop\n        /* \"#utility.yul\":7299:7767   */\n      swap3\n      pop\n      swap3\n      swap1\n      pop\n      jump\t// out\n        /* \"#utility.yul\":7773:8247   */\n    tag_41:\n        /* \"#utility.yul\":7841:7847   */\n      0x00\n        /* \"#utility.yul\":7849:7855   */\n      dup1\n        /* \"#utility.yul\":7898:7900   */\n      0x40\n        /* \"#utility.yul\":7886:7895   */\n      dup4\n        /* \"#utility.yul\":7877:7884   */\n      dup6\n        /* \"#utility.yul\":7873:7896   */\n      sub\n        /* \"#utility.yul\":7869:7901   */\n      slt\n        /* \"#utility.yul\":7866:7985   */\n      iszero\n      tag_249\n      jumpi\n        /* \"#utility.yul\":7904:7983   */\n      tag_250\n      tag_101\n      jump\t// in\n    tag_250:\n        /* \"#utility.yul\":7866:7985   */\n    tag_249:\n        /* \"#utility.yul\":8024:8025   */\n      0x00\n        /* \"#utility.yul\":8049:8102   */\n      tag_251\n        /* \"#utility.yul\":8094:8101   */\n      dup6\n        /* \"#utility.yul\":8085:8091   */\n      dup3\n        /* \"#utility.yul\":8074:8083   */\n      dup7\n        /* \"#utility.yul\":8070:8092   */\n      add\n        /* \"#utility.yul\":8049:8102   */\n      tag_106\n      jump\t// in\n    tag_251:\n        /* \"#utility.yul\":8039:8102   */\n      swap3\n      pop\n        /* \"#utility.yul\":7995:8112   */\n      pop\n        /* \"#utility.yul\":8151:8153   */\n      0x20\n        /* \"#utility.yul\":8177:8230   */\n      tag_252\n        /* \"#utility.yul\":8222:8229   */\n      dup6\n        /* \"#utility.yul\":8213:8219   */\n      dup3\n        /* \"#utility.yul\":8202:8211   */\n      dup7\n        /* \"#utility.yul\":8198:8220   */\n      add\n        /* \"#utility.yul\":8177:8230   */\n      tag_114\n      jump\t// in\n    tag_252:\n        /* \"#utility.yul\":8167:8230   */\n      swap2\n      pop\n        /* \"#utility.yul\":8122:8240   */\n      pop\n        /* \"#utility.yul\":7773:8247   */\n      swap3\n      pop\n      swap3\n      swap1\n      pop\n      jump\t// out\n        /* \"#utility.yul\":8253:8371   */\n    tag_132:\n        /* \"#utility.yul\":8340:8364   */\n      tag_254\n        /* \"#utility.yul\":8358:8363   */\n      dup2\n        /* \"#utility.yul\":8340:8364   */\n      tag_112\n      jump\t// in\n    tag_254:\n        /* \"#utility.yul\":8335:8338   */\n      dup3\n        /* \"#utility.yul\":8328:8365   */\n      mstore\n        /* \"#utility.yul\":8253:8371   */\n      pop\n      pop\n      jump\t// out\n        /* \"#utility.yul\":8377:8599   */\n    tag_48:\n        /* \"#utility.yul\":8470:8474   */\n      0x00\n        /* \"#utility.yul\":8508:8510   */\n      0x20\n        /* \"#utility.yul\":8497:8506   */\n      dup3\n        /* \"#utility.yul\":8493:8511   */\n      add\n        /* \"#utility.yul\":8485:8511   */\n      swap1\n      pop\n        /* \"#utility.yul\":8521:8592   */\n      tag_256\n        /* \"#utility.yul\":8589:8590   */\n      0x00\n        /* \"#utility.yul\":8578:8587   */\n      dup4\n        /* \"#utility.yul\":8574:8591   */\n      add\n        /* \"#utility.yul\":8565:8571   */\n      dup5\n        /* \"#utility.yul\":8521:8592   */\n      tag_132\n      jump\t// in\n    tag_256:\n        /* \"#utility.yul\":8377:8599   */\n      swap3\n      swap2\n      pop\n      pop\n      jump\t// out\n        /* \"#utility.yul\":8605:8950   */\n    tag_56:\n        /* \"#utility.yul\":8672:8678   */\n      0x00\n        /* \"#utility.yul\":8721:8723   */\n      0x20\n        /* \"#utility.yul\":8709:8718   */\n      dup3\n        /* \"#utility.yul\":8700:8707   */\n      dup5\n        /* \"#utility.yul\":8696:8719   */\n      sub\n        /* \"#utility.yul\":8692:8724   */\n      slt\n        /* \"#utility.yul\":8689:8808   */\n      iszero\n      tag_258\n      jumpi\n        /* \"#utility.yul\":8727:8806   */\n      tag_259\n      tag_101\n      jump\t// in\n    tag_259:\n        /* \"#utility.yul\":8689:8808   */\n    tag_258:\n        /* \"#utility.yul\":8847:8848   */\n      0x00\n        /* \"#utility.yul\":8872:8933   */\n      tag_260\n        /* \"#utility.yul\":8925:8932   */\n      dup5\n        /* \"#utility.yul\":8916:8922   */\n      dup3\n        /* \"#utility.yul\":8905:8914   */\n      dup6\n        /* \"#utility.yul\":8901:8923   */\n      add\n        /* \"#utility.yul\":8872:8933   */\n      tag_111\n      jump\t// in\n    tag_260:\n        /* \"#utility.yul\":8862:8933   */\n      swap2\n      pop\n        /* \"#utility.yul\":8818:8943   */\n      pop\n        /* \"#utility.yul\":8605:8950   */\n      swap3\n      swap2\n      pop\n      pop\n      jump\t// out\n        /* \"#utility.yul\":8956:9125   */\n    tag_133:\n        /* \"#utility.yul\":9040:9051   */\n      0x00\n        /* \"#utility.yul\":9074:9080   */\n      dup3\n        /* \"#utility.yul\":9069:9072   */\n      dup3\n        /* \"#utility.yul\":9062:9081   */\n      mstore\n        /* \"#utility.yul\":9114:9118   */\n      0x20\n        /* \"#utility.yul\":9109:9112   */\n      dup3\n        /* \"#utility.yul\":9105:9119   */\n      add\n        /* \"#utility.yul\":9090:9119   */\n      swap1\n      pop\n        /* \"#utility.yul\":8956:9125   */\n      swap3\n      swap2\n      pop\n      pop\n      jump\t// out\n        /* \"#utility.yul\":9131:9299   */\n    tag_134:\n        /* \"#utility.yul\":9271:9291   */\n      0x596f752061696e7420746865206f776e65720000000000000000000000000000\n        /* \"#utility.yul\":9267:9268   */\n      0x00\n        /* \"#utility.yul\":9259:9265   */\n      dup3\n        /* \"#utility.yul\":9255:9269   */\n      add\n        /* \"#utility.yul\":9248:9292   */\n      mstore\n        /* \"#utility.yul\":9131:9299   */\n      pop\n      jump\t// out\n        /* \"#utility.yul\":9305:9671   */\n    tag_135:\n        /* \"#utility.yul\":9447:9450   */\n      0x00\n        /* \"#utility.yul\":9468:9535   */\n      tag_264\n        /* \"#utility.yul\":9532:9534   */\n      0x12\n        /* \"#utility.yul\":9527:9530   */\n      dup4\n        /* \"#utility.yul\":9468:9535   */\n      tag_133\n      jump\t// in\n    tag_264:\n        /* \"#utility.yul\":9461:9535   */\n      swap2\n      pop\n        /* \"#utility.yul\":9544:9637   */\n      tag_265\n        /* \"#utility.yul\":9633:9636   */\n      dup3\n        /* \"#utility.yul\":9544:9637   */\n      tag_134\n      jump\t// in\n    tag_265:\n        /* \"#utility.yul\":9662:9664   */\n      0x20\n        /* \"#utility.yul\":9657:9660   */\n      dup3\n        /* \"#utility.yul\":9653:9665   */\n      add\n        /* \"#utility.yul\":9646:9665   */\n      swap1\n      pop\n        /* \"#utility.yul\":9305:9671   */\n      swap2\n      swap1\n      pop\n      jump\t// out\n        /* \"#utility.yul\":9677:10096   */\n    tag_61:\n        /* \"#utility.yul\":9843:9847   */\n      0x00\n        /* \"#utility.yul\":9881:9883   */\n      0x20\n        /* \"#utility.yul\":9870:9879   */\n      dup3\n        /* \"#utility.yul\":9866:9884   */\n      add\n        /* \"#utility.yul\":9858:9884   */\n      swap1\n      pop\n        /* \"#utility.yul\":9930:9939   */\n      dup2\n        /* \"#utility.yul\":9924:9928   */\n      dup2\n        /* \"#utility.yul\":9920:9940   */\n      sub\n        /* \"#utility.yul\":9916:9917   */\n      0x00\n        /* \"#utility.yul\":9905:9914   */\n      dup4\n        /* \"#utility.yul\":9901:9918   */\n      add\n        /* \"#utility.yul\":9894:9941   */\n      mstore\n        /* \"#utility.yul\":9958:10089   */\n      tag_267\n        /* \"#utility.yul\":10084:10088   */\n      dup2\n        /* \"#utility.yul\":9958:10089   */\n      tag_135\n      jump\t// in\n    tag_267:\n        /* \"#utility.yul\":9950:10089   */\n      swap1\n      pop\n        /* \"#utility.yul\":9677:10096   */\n      swap2\n      swap1\n      pop\n      jump\t// out\n        /* \"#utility.yul\":10102:10277   */\n    tag_136:\n        /* \"#utility.yul\":10242:10269   */\n      0x496e73756666696369656e74205065726d697373696f6e732100000000000000\n        /* \"#utility.yul\":10238:10239   */\n      0x00\n        /* \"#utility.yul\":10230:10236   */\n      dup3\n        /* \"#utility.yul\":10226:10240   */\n      add\n        /* \"#utility.yul\":10219:10270   */\n      mstore\n        /* \"#utility.yul\":10102:10277   */\n      pop\n      jump\t// out\n        /* \"#utility.yul\":10283:10649   */\n    tag_137:\n        /* \"#utility.yul\":10425:10428   */\n      0x00\n        /* \"#utility.yul\":10446:10513   */\n      tag_270\n        /* \"#utility.yul\":10510:10512   */\n      0x19\n        /* \"#utility.yul\":10505:10508   */\n      dup4\n        /* \"#utility.yul\":10446:10513   */\n      tag_133\n      jump\t// in\n    tag_270:\n        /* \"#utility.yul\":10439:10513   */\n      swap2\n      pop\n        /* \"#utility.yul\":10522:10615   */\n      tag_271\n        /* \"#utility.yul\":10611:10614   */\n      dup3\n        /* \"#utility.yul\":10522:10615   */\n      tag_136\n      jump\t// in\n    tag_271:\n        /* \"#utility.yul\":10640:10642   */\n      0x20\n        /* \"#utility.yul\":10635:10638   */\n      dup3\n        /* \"#utility.yul\":10631:10643   */\n      add\n        /* \"#utility.yul\":10624:10643   */\n      swap1\n      pop\n        /* \"#utility.yul\":10283:10649   */\n      swap2\n      swap1\n      pop\n      jump\t// out\n        /* \"#utility.yul\":10655:11074   */\n    tag_65:\n        /* \"#utility.yul\":10821:10825   */\n      0x00\n        /* \"#utility.yul\":10859:10861   */\n      0x20\n        /* \"#utility.yul\":10848:10857   */\n      dup3\n        /* \"#utility.yul\":10844:10862   */\n      add\n        /* \"#utility.yul\":10836:10862   */\n      swap1\n      pop\n        /* \"#utility.yul\":10908:10917   */\n      dup2\n        /* \"#utility.yul\":10902:10906   */\n      dup2\n        /* \"#utility.yul\":10898:10918   */\n      sub\n        /* \"#utility.yul\":10894:10895   */\n      0x00\n        /* \"#utility.yul\":10883:10892   */\n      dup4\n        /* \"#utility.yul\":10879:10896   */\n      add\n        /* \"#utility.yul\":10872:10919   */\n      mstore\n        /* \"#utility.yul\":10936:11067   */\n      tag_273\n        /* \"#utility.yul\":11062:11066   */\n      dup2\n        /* \"#utility.yul\":10936:11067   */\n      tag_137\n      jump\t// in\n    tag_273:\n        /* \"#utility.yul\":10928:11067   */\n      swap1\n      pop\n        /* \"#utility.yul\":10655:11074   */\n      swap2\n      swap1\n      pop\n      jump\t// out\n        /* \"#utility.yul\":11080:11301   */\n    tag_138:\n        /* \"#utility.yul\":11220:11254   */\n      0x4e6f7420616c6c6f77656420746f2073656e6420746f6f206d756368206d6f6e\n        /* \"#utility.yul\":11216:11217   */\n      0x00\n        /* \"#utility.yul\":11208:11214   */\n      dup3\n        /* \"#utility.yul\":11204:11218   */\n      add\n        /* \"#utility.yul\":11197:11255   */\n      mstore\n        /* \"#utility.yul\":11289:11293   */\n      0x6579000000000000000000000000000000000000000000000000000000000000\n        /* \"#utility.yul\":11284:11286   */\n      0x20\n        /* \"#utility.yul\":11276:11282   */\n      dup3\n        /* \"#utility.yul\":11272:11287   */\n      add\n        /* \"#utility.yul\":11265:11294   */\n      mstore\n        /* \"#utility.yul\":11080:11301   */\n      pop\n      jump\t// out\n        /* \"#utility.yul\":11307:11673   */\n    tag_139:\n        /* \"#utility.yul\":11449:11452   */\n      0x00\n        /* \"#utility.yul\":11470:11537   */\n      tag_276\n        /* \"#utility.yul\":11534:11536   */\n      0x22\n        /* \"#utility.yul\":11529:11532   */\n      dup4\n        /* \"#utility.yul\":11470:11537   */\n      tag_133\n      jump\t// in\n    tag_276:\n        /* \"#utility.yul\":11463:11537   */\n      swap2\n      pop\n        /* \"#utility.yul\":11546:11639   */\n      tag_277\n        /* \"#utility.yul\":11635:11638   */\n      dup3\n        /* \"#utility.yul\":11546:11639   */\n      tag_138\n      jump\t// in\n    tag_277:\n        /* \"#utility.yul\":11664:11666   */\n      0x40\n        /* \"#utility.yul\":11659:11662   */\n      dup3\n        /* \"#utility.yul\":11655:11667   */\n      add\n        /* \"#utility.yul\":11648:11667   */\n      swap1\n      pop\n        /* \"#utility.yul\":11307:11673   */\n      swap2\n      swap1\n      pop\n      jump\t// out\n        /* \"#utility.yul\":11679:12098   */\n    tag_68:\n        /* \"#utility.yul\":11845:11849   */\n      0x00\n        /* \"#utility.yul\":11883:11885   */\n      0x20\n        /* \"#utility.yul\":11872:11881   */\n      dup3\n        /* \"#utility.yul\":11868:11886   */\n      add\n        /* \"#utility.yul\":11860:11886   */\n      swap1\n      pop\n        /* \"#utility.yul\":11932:11941   */\n      dup2\n        /* \"#utility.yul\":11926:11930   */\n      dup2\n        /* \"#utility.yul\":11922:11942   */\n      sub\n        /* \"#utility.yul\":11918:11919   */\n      0x00\n        /* \"#utility.yul\":11907:11916   */\n      dup4\n        /* \"#utility.yul\":11903:11920   */\n      add\n        /* \"#utility.yul\":11896:11943   */\n      mstore\n        /* \"#utility.yul\":11960:12091   */\n      tag_279\n        /* \"#utility.yul\":12086:12090   */\n      dup2\n        /* \"#utility.yul\":11960:12091   */\n      tag_139\n      jump\t// in\n    tag_279:\n        /* \"#utility.yul\":11952:12091   */\n      swap1\n      pop\n        /* \"#utility.yul\":11679:12098   */\n      swap2\n      swap1\n      pop\n      jump\t// out\n        /* \"#utility.yul\":12104:12284   */\n    tag_140:\n        /* \"#utility.yul\":12152:12229   */\n      0x4e487b7100000000000000000000000000000000000000000000000000000000\n        /* \"#utility.yul\":12149:12150   */\n      0x00\n        /* \"#utility.yul\":12142:12230   */\n      mstore\n        /* \"#utility.yul\":12249:12253   */\n      0x11\n        /* \"#utility.yul\":12246:12247   */\n      0x04\n        /* \"#utility.yul\":12239:12254   */\n      mstore\n        /* \"#utility.yul\":12273:12277   */\n      0x24\n        /* \"#utility.yul\":12270:12271   */\n      0x00\n        /* \"#utility.yul\":12263:12278   */\n      revert\n        /* \"#utility.yul\":12290:12484   */\n    tag_70:\n        /* \"#utility.yul\":12330:12334   */\n      0x00\n        /* \"#utility.yul\":12350:12370   */\n      tag_282\n        /* \"#utility.yul\":12368:12369   */\n      dup3\n        /* \"#utility.yul\":12350:12370   */\n      tag_112\n      jump\t// in\n    tag_282:\n        /* \"#utility.yul\":12345:12370   */\n      swap2\n      pop\n        /* \"#utility.yul\":12384:12404   */\n      tag_283\n        /* \"#utility.yul\":12402:12403   */\n      dup4\n        /* \"#utility.yul\":12384:12404   */\n      tag_112\n      jump\t// in\n    tag_283:\n        /* \"#utility.yul\":12379:12404   */\n      swap3\n      pop\n        /* \"#utility.yul\":12428:12429   */\n      dup3\n        /* \"#utility.yul\":12425:12426   */\n      dup3\n        /* \"#utility.yul\":12421:12430   */\n      sub\n        /* \"#utility.yul\":12413:12430   */\n      swap1\n      pop\n        /* \"#utility.yul\":12452:12453   */\n      dup2\n        /* \"#utility.yul\":12446:12450   */\n      dup2\n        /* \"#utility.yul\":12443:12454   */\n      gt\n        /* \"#utility.yul\":12440:12477   */\n      iszero\n      tag_284\n      jumpi\n        /* \"#utility.yul\":12457:12475   */\n      tag_285\n      tag_140\n      jump\t// in\n    tag_285:\n        /* \"#utility.yul\":12440:12477   */\n    tag_284:\n        /* \"#utility.yul\":12290:12484   */\n      swap3\n      swap2\n      pop\n      pop\n      jump\t// out\n        /* \"#utility.yul\":12490:12637   */\n    tag_141:\n        /* \"#utility.yul\":12591:12602   */\n      0x00\n        /* \"#utility.yul\":12628:12631   */\n      dup2\n        /* \"#utility.yul\":12613:12631   */\n      swap1\n      pop\n        /* \"#utility.yul\":12490:12637   */\n      swap3\n      swap2\n      pop\n      pop\n      jump\t// out\n        /* \"#utility.yul\":12643:13029   */\n    tag_142:\n        /* \"#utility.yul\":12747:12750   */\n      0x00\n        /* \"#utility.yul\":12775:12813   */\n      tag_288\n        /* \"#utility.yul\":12807:12812   */\n      dup3\n        /* \"#utility.yul\":12775:12813   */\n      tag_125\n      jump\t// in\n    tag_288:\n        /* \"#utility.yul\":12829:12917   */\n      tag_289\n        /* \"#utility.yul\":12910:12916   */\n      dup2\n        /* \"#utility.yul\":12905:12908   */\n      dup6\n        /* \"#utility.yul\":12829:12917   */\n      tag_141\n      jump\t// in\n    tag_289:\n        /* \"#utility.yul\":12822:12917   */\n      swap4\n      pop\n        /* \"#utility.yul\":12926:12991   */\n      tag_290\n        /* \"#utility.yul\":12984:12990   */\n      dup2\n        /* \"#utility.yul\":12979:12982   */\n      dup6\n        /* \"#utility.yul\":12972:12976   */\n      0x20\n        /* \"#utility.yul\":12965:12970   */\n      dup7\n        /* \"#utility.yul\":12961:12977   */\n      add\n        /* \"#utility.yul\":12926:12991   */\n      tag_127\n      jump\t// in\n    tag_290:\n        /* \"#utility.yul\":13016:13022   */\n      dup1\n        /* \"#utility.yul\":13011:13014   */\n      dup5\n        /* \"#utility.yul\":13007:13023   */\n      add\n        /* \"#utility.yul\":13000:13023   */\n      swap2\n      pop\n        /* \"#utility.yul\":12751:13029   */\n      pop\n        /* \"#utility.yul\":12643:13029   */\n      swap3\n      swap2\n      pop\n      pop\n      jump\t// out\n        /* \"#utility.yul\":13035:13306   */\n    tag_72:\n        /* \"#utility.yul\":13165:13168   */\n      0x00\n        /* \"#utility.yul\":13187:13280   */\n      tag_292\n        /* \"#utility.yul\":13276:13279   */\n      dup3\n        /* \"#utility.yul\":13267:13273   */\n      dup5\n        /* \"#utility.yul\":13187:13280   */\n      tag_142\n      jump\t// in\n    tag_292:\n        /* \"#utility.yul\":13180:13280   */\n      swap2\n      pop\n        /* \"#utility.yul\":13297:13300   */\n      dup2\n        /* \"#utility.yul\":13290:13300   */\n      swap1\n      pop\n        /* \"#utility.yul\":13035:13306   */\n      swap3\n      swap2\n      pop\n      pop\n      jump\t// out\n        /* \"#utility.yul\":13312:13485   */\n    tag_143:\n        /* \"#utility.yul\":13452:13477   */\n      0x43616c6c20776173206e6f74207375636365737366756c000000000000000000\n        /* \"#utility.yul\":13448:13449   */\n      0x00\n        /* \"#utility.yul\":13440:13446   */\n      dup3\n        /* \"#utility.yul\":13436:13450   */\n      add\n        /* \"#utility.yul\":13429:13478   */\n      mstore\n        /* \"#utility.yul\":13312:13485   */\n      pop\n      jump\t// out\n        /* \"#utility.yul\":13491:13857   */\n    tag_144:\n        /* \"#utility.yul\":13633:13636   */\n      0x00\n        /* \"#utility.yul\":13654:13721   */\n      tag_295\n        /* \"#utility.yul\":13718:13720   */\n      0x17\n        /* \"#utility.yul\":13713:13716   */\n      dup4\n        /* \"#utility.yul\":13654:13721   */\n      tag_133\n      jump\t// in\n    tag_295:\n        /* \"#utility.yul\":13647:13721   */\n      swap2\n      pop\n        /* \"#utility.yul\":13730:13823   */\n      tag_296\n        /* \"#utility.yul\":13819:13822   */\n      dup3\n        /* \"#utility.yul\":13730:13823   */\n      tag_143\n      jump\t// in\n    tag_296:\n        /* \"#utility.yul\":13848:13850   */\n      0x20\n        /* \"#utility.yul\":13843:13846   */\n      dup3\n        /* \"#utility.yul\":13839:13851   */\n      add\n        /* \"#utility.yul\":13832:13851   */\n      swap1\n      pop\n        /* \"#utility.yul\":13491:13857   */\n      swap2\n      swap1\n      pop\n      jump\t// out\n        /* \"#utility.yul\":13863:14282   */\n    tag_78:\n        /* \"#utility.yul\":14029:14033   */\n      0x00\n        /* \"#utility.yul\":14067:14069   */\n      0x20\n        /* \"#utility.yul\":14056:14065   */\n      dup3\n        /* \"#utility.yul\":14052:14070   */\n      add\n        /* \"#utility.yul\":14044:14070   */\n      swap1\n      pop\n        /* \"#utility.yul\":14116:14125   */\n      dup2\n        /* \"#utility.yul\":14110:14114   */\n      dup2\n        /* \"#utility.yul\":14106:14126   */\n      sub\n        /* \"#utility.yul\":14102:14103   */\n      0x00\n        /* \"#utility.yul\":14091:14100   */\n      dup4\n        /* \"#utility.yul\":14087:14104   */\n      add\n        /* \"#utility.yul\":14080:14127   */\n      mstore\n        /* \"#utility.yul\":14144:14275   */\n      tag_298\n        /* \"#utility.yul\":14270:14274   */\n      dup2\n        /* \"#utility.yul\":14144:14275   */\n      tag_144\n      jump\t// in\n    tag_298:\n        /* \"#utility.yul\":14136:14275   */\n      swap1\n      pop\n        /* \"#utility.yul\":13863:14282   */\n      swap2\n      swap1\n      pop\n      jump\t// out\n        /* \"#utility.yul\":14288:14459   */\n    tag_145:\n        /* \"#utility.yul\":14428:14451   */\n      0x596f7520617265206e6f7420746865206f776e65720000000000000000000000\n        /* \"#utility.yul\":14424:14425   */\n      0x00\n        /* \"#utility.yul\":14416:14422   */\n      dup3\n        /* \"#utility.yul\":14412:14426   */\n      add\n        /* \"#utility.yul\":14405:14452   */\n      mstore\n        /* \"#utility.yul\":14288:14459   */\n      pop\n      jump\t// out\n        /* \"#utility.yul\":14465:14831   */\n    tag_146:\n        /* \"#utility.yul\":14607:14610   */\n      0x00\n        /* \"#utility.yul\":14628:14695   */\n      tag_301\n        /* \"#utility.yul\":14692:14694   */\n      0x15\n        /* \"#utility.yul\":14687:14690   */\n      dup4\n        /* \"#utility.yul\":14628:14695   */\n      tag_133\n      jump\t// in\n    tag_301:\n        /* \"#utility.yul\":14621:14695   */\n      swap2\n      pop\n        /* \"#utility.yul\":14704:14797   */\n      tag_302\n        /* \"#utility.yul\":14793:14796   */\n      dup3\n        /* \"#utility.yul\":14704:14797   */\n      tag_145\n      jump\t// in\n    tag_302:\n        /* \"#utility.yul\":14822:14824   */\n      0x20\n        /* \"#utility.yul\":14817:14820   */\n      dup3\n        /* \"#utility.yul\":14813:14825   */\n      add\n        /* \"#utility.yul\":14806:14825   */\n      swap1\n      pop\n        /* \"#utility.yul\":14465:14831   */\n      swap2\n      swap1\n      pop\n      jump\t// out\n        /* \"#utility.yul\":14837:15256   */\n    tag_82:\n        /* \"#utility.yul\":15003:15007   */\n      0x00\n        /* \"#utility.yul\":15041:15043   */\n      0x20\n        /* \"#utility.yul\":15030:15039   */\n      dup3\n        /* \"#utility.yul\":15026:15044   */\n      add\n        /* \"#utility.yul\":15018:15044   */\n      swap1\n      pop\n        /* \"#utility.yul\":15090:15099   */\n      dup2\n        /* \"#utility.yul\":15084:15088   */\n      dup2\n        /* \"#utility.yul\":15080:15100   */\n      sub\n        /* \"#utility.yul\":15076:15077   */\n      0x00\n        /* \"#utility.yul\":15065:15074   */\n      dup4\n        /* \"#utility.yul\":15061:15078   */\n      add\n        /* \"#utility.yul\":15054:15101   */\n      mstore\n        /* \"#utility.yul\":15118:15249   */\n      tag_304\n        /* \"#utility.yul\":15244:15248   */\n      dup2\n        /* \"#utility.yul\":15118:15249   */\n      tag_146\n      jump\t// in\n    tag_304:\n        /* \"#utility.yul\":15110:15249   */\n      swap1\n      pop\n        /* \"#utility.yul\":14837:15256   */\n      swap2\n      swap1\n      pop\n      jump\t// out\n        /* \"#utility.yul\":15262:15426   */\n    tag_147:\n        /* \"#utility.yul\":15402:15418   */\n      0x4e6f7420746865206f776e657221000000000000000000000000000000000000\n        /* \"#utility.yul\":15398:15399   */\n      0x00\n        /* \"#utility.yul\":15390:15396   */\n      dup3\n        /* \"#utility.yul\":15386:15400   */\n      add\n        /* \"#utility.yul\":15379:15419   */\n      mstore\n        /* \"#utility.yul\":15262:15426   */\n      pop\n      jump\t// out\n        /* \"#utility.yul\":15432:15798   */\n    tag_148:\n        /* \"#utility.yul\":15574:15577   */\n      0x00\n        /* \"#utility.yul\":15595:15662   */\n      tag_307\n        /* \"#utility.yul\":15659:15661   */\n      0x0e\n        /* \"#utility.yul\":15654:15657   */\n      dup4\n        /* \"#utility.yul\":15595:15662   */\n      tag_133\n      jump\t// in\n    tag_307:\n        /* \"#utility.yul\":15588:15662   */\n      swap2\n      pop\n        /* \"#utility.yul\":15671:15764   */\n      tag_308\n        /* \"#utility.yul\":15760:15763   */\n      dup3\n        /* \"#utility.yul\":15671:15764   */\n      tag_147\n      jump\t// in\n    tag_308:\n        /* \"#utility.yul\":15789:15791   */\n      0x20\n        /* \"#utility.yul\":15784:15787   */\n      dup3\n        /* \"#utility.yul\":15780:15792   */\n      add\n        /* \"#utility.yul\":15773:15792   */\n      swap1\n      pop\n        /* \"#utility.yul\":15432:15798   */\n      swap2\n      swap1\n      pop\n      jump\t// out\n        /* \"#utility.yul\":15804:16223   */\n    tag_86:\n        /* \"#utility.yul\":15970:15974   */\n      0x00\n        /* \"#utility.yul\":16008:16010   */\n      0x20\n        /* \"#utility.yul\":15997:16006   */\n      dup3\n        /* \"#utility.yul\":15993:16011   */\n      add\n        /* \"#utility.yul\":15985:16011   */\n      swap1\n      pop\n        /* \"#utility.yul\":16057:16066   */\n      dup2\n        /* \"#utility.yul\":16051:16055   */\n      dup2\n        /* \"#utility.yul\":16047:16067   */\n      sub\n        /* \"#utility.yul\":16043:16044   */\n      0x00\n        /* \"#utility.yul\":16032:16041   */\n      dup4\n        /* \"#utility.yul\":16028:16045   */\n      add\n        /* \"#utility.yul\":16021:16068   */\n      mstore\n        /* \"#utility.yul\":16085:16216   */\n      tag_310\n        /* \"#utility.yul\":16211:16215   */\n      dup2\n        /* \"#utility.yul\":16085:16216   */\n      tag_148\n      jump\t// in\n    tag_310:\n        /* \"#utility.yul\":16077:16216   */\n      swap1\n      pop\n        /* \"#utility.yul\":15804:16223   */\n      swap2\n      swap1\n      pop\n      jump\t// out\n        /* \"#utility.yul\":16229:16402   */\n    tag_149:\n        /* \"#utility.yul\":16369:16394   */\n      0x4f6e6c7920677561726469616e7320616c6c6f7765642e000000000000000000\n        /* \"#utility.yul\":16365:16366   */\n      0x00\n        /* \"#utility.yul\":16357:16363   */\n      dup3\n        /* \"#utility.yul\":16353:16367   */\n      add\n        /* \"#utility.yul\":16346:16395   */\n      mstore\n        /* \"#utility.yul\":16229:16402   */\n      pop\n      jump\t// out\n        /* \"#utility.yul\":16408:16774   */\n    tag_150:\n        /* \"#utility.yul\":16550:16553   */\n      0x00\n        /* \"#utility.yul\":16571:16638   */\n      tag_313\n        /* \"#utility.yul\":16635:16637   */\n      0x17\n        /* \"#utility.yul\":16630:16633   */\n      dup4\n        /* \"#utility.yul\":16571:16638   */\n      tag_133\n      jump\t// in\n    tag_313:\n        /* \"#utility.yul\":16564:16638   */\n      swap2\n      pop\n        /* \"#utility.yul\":16647:16740   */\n      tag_314\n        /* \"#utility.yul\":16736:16739   */\n      dup3\n        /* \"#utility.yul\":16647:16740   */\n      tag_149\n      jump\t// in\n    tag_314:\n        /* \"#utility.yul\":16765:16767   */\n      0x20\n        /* \"#utility.yul\":16760:16763   */\n      dup3\n        /* \"#utility.yul\":16756:16768   */\n      add\n        /* \"#utility.yul\":16749:16768   */\n      swap1\n      pop\n        /* \"#utility.yul\":16408:16774   */\n      swap2\n      swap1\n      pop\n      jump\t// out\n        /* \"#utility.yul\":16780:17199   */\n    tag_92:\n        /* \"#utility.yul\":16946:16950   */\n      0x00\n        /* \"#utility.yul\":16984:16986   */\n      0x20\n        /* \"#utility.yul\":16973:16982   */\n      dup3\n        /* \"#utility.yul\":16969:16987   */\n      add\n        /* \"#utility.yul\":16961:16987   */\n      swap1\n      pop\n        /* \"#utility.yul\":17033:17042   */\n      dup2\n        /* \"#utility.yul\":17027:17031   */\n      dup2\n        /* \"#utility.yul\":17023:17043   */\n      sub\n        /* \"#utility.yul\":17019:17020   */\n      0x00\n        /* \"#utility.yul\":17008:17017   */\n      dup4\n        /* \"#utility.yul\":17004:17021   */\n      add\n        /* \"#utility.yul\":16997:17044   */\n      mstore\n        /* \"#utility.yul\":17061:17192   */\n      tag_316\n        /* \"#utility.yul\":17187:17191   */\n      dup2\n        /* \"#utility.yul\":17061:17192   */\n      tag_150\n      jump\t// in\n    tag_316:\n        /* \"#utility.yul\":17053:17192   */\n      swap1\n      pop\n        /* \"#utility.yul\":16780:17199   */\n      swap2\n      swap1\n      pop\n      jump\t// out\n        /* \"#utility.yul\":17205:17372   */\n    tag_151:\n        /* \"#utility.yul\":17345:17364   */\n      0x596f7520616c726561647920766f746564000000000000000000000000000000\n        /* \"#utility.yul\":17341:17342   */\n      0x00\n        /* \"#utility.yul\":17333:17339   */\n      dup3\n        /* \"#utility.yul\":17329:17343   */\n      add\n        /* \"#utility.yul\":17322:17365   */\n      mstore\n        /* \"#utility.yul\":17205:17372   */\n      pop\n      jump\t// out\n        /* \"#utility.yul\":17378:17744   */\n    tag_152:\n        /* \"#utility.yul\":17520:17523   */\n      0x00\n        /* \"#utility.yul\":17541:17608   */\n      tag_319\n        /* \"#utility.yul\":17605:17607   */\n      0x11\n        /* \"#utility.yul\":17600:17603   */\n      dup4\n        /* \"#utility.yul\":17541:17608   */\n      tag_133\n      jump\t// in\n    tag_319:\n        /* \"#utility.yul\":17534:17608   */\n      swap2\n      pop\n        /* \"#utility.yul\":17617:17710   */\n      tag_320\n        /* \"#utility.yul\":17706:17709   */\n      dup3\n        /* \"#utility.yul\":17617:17710   */\n      tag_151\n      jump\t// in\n    tag_320:\n        /* \"#utility.yul\":17735:17737   */\n      0x20\n        /* \"#utility.yul\":17730:17733   */\n      dup3\n        /* \"#utility.yul\":17726:17738   */\n      add\n        /* \"#utility.yul\":17719:17738   */\n      swap1\n      pop\n        /* \"#utility.yul\":17378:17744   */\n      swap2\n      swap1\n      pop\n      jump\t// out\n        /* \"#utility.yul\":17750:18169   */\n    tag_95:\n        /* \"#utility.yul\":17916:17920   */\n      0x00\n        /* \"#utility.yul\":17954:17956   */\n      0x20\n        /* \"#utility.yul\":17943:17952   */\n      dup3\n        /* \"#utility.yul\":17939:17957   */\n      add\n        /* \"#utility.yul\":17931:17957   */\n      swap1\n      pop\n        /* \"#utility.yul\":18003:18012   */\n      dup2\n        /* \"#utility.yul\":17997:18001   */\n      dup2\n        /* \"#utility.yul\":17993:18013   */\n      sub\n        /* \"#utility.yul\":17989:17990   */\n      0x00\n        /* \"#utility.yul\":17978:17987   */\n      dup4\n        /* \"#utility.yul\":17974:17991   */\n      add\n        /* \"#utility.yul\":17967:18014   */\n      mstore\n        /* \"#utility.yul\":18031:18162   */\n      tag_322\n        /* \"#utility.yul\":18157:18161   */\n      dup2\n        /* \"#utility.yul\":18031:18162   */\n      tag_152\n      jump\t// in\n    tag_322:\n        /* \"#utility.yul\":18023:18162   */\n      swap1\n      pop\n        /* \"#utility.yul\":17750:18169   */\n      swap2\n      swap1\n      pop\n      jump\t// out\n        /* \"#utility.yul\":18175:18408   */\n    tag_98:\n        /* \"#utility.yul\":18214:18217   */\n      0x00\n        /* \"#utility.yul\":18237:18261   */\n      tag_324\n        /* \"#utility.yul\":18255:18260   */\n      dup3\n        /* \"#utility.yul\":18237:18261   */\n      tag_112\n      jump\t// in\n    tag_324:\n        /* \"#utility.yul\":18228:18261   */\n      swap2\n      pop\n        /* \"#utility.yul\":18283:18349   */\n      0xffffffffffffffffffffffffffffffffffffffffffffffffffffffffffffffff\n        /* \"#utility.yul\":18276:18281   */\n      dup3\n        /* \"#utility.yul\":18273:18350   */\n      sub\n        /* \"#utility.yul\":18270:18373   */\n      tag_325\n      jumpi\n        /* \"#utility.yul\":18353:18371   */\n      tag_326\n      tag_140\n      jump\t// in\n    tag_326:\n        /* \"#utility.yul\":18270:18373   */\n    tag_325:\n        /* \"#utility.yul\":18400:18401   */\n      0x01\n        /* \"#utility.yul\":18393:18398   */\n      dup3\n        /* \"#utility.yul\":18389:18402   */\n      add\n        /* \"#utility.yul\":18382:18402   */\n      swap1\n      pop\n        /* \"#utility.yul\":18175:18408   */\n      swap2\n      swap1\n      pop\n      jump\t// out\n\n    auxdata: 0xa26469706673582212201201115d8c76f329b52047e6f253450d047ac7aeb5e4a9b0652665c21cba5d0b64736f6c63430008100033\n}\n",
				"bytecode": {
					"linkReferences": {},
					"object": "608060405234801561001057600080fd5b50336000806101000a81548173ffffffffffffffffffffffffffffffffffffffff021916908373ffffffffffffffffffffffffffffffffffffffff160217905550611452806100606000396000f3fe60806040526004361061007f5760003560e01c8063310ec4a71161004e578063310ec4a7146101595780633e5beab91461018257806358e404b1146101bf578063b1f8100d146101ea57610086565b80630633b14a1461008b5780630d663035146100c85780631ae879e8146101055780632b8a1c5a1461013057610086565b3661008657005b600080fd5b34801561009757600080fd5b506100b260048036038101906100ad9190610b2d565b610213565b6040516100bf9190610b75565b60405180910390f35b3480156100d457600080fd5b506100ef60048036038101906100ea9190610d4a565b610233565b6040516100fc9190610e38565b60405180910390f35b34801561011157600080fd5b5061011a610537565b6040516101279190610e69565b60405180910390f35b34801561013c57600080fd5b5061015760048036038101906101529190610eb0565b61055b565b005b34801561016557600080fd5b50610180600480360381019061017b9190610ef0565b610644565b005b34801561018e57600080fd5b506101a960048036038101906101a49190610b2d565b6107d9565b6040516101b69190610f3f565b60405180910390f35b3480156101cb57600080fd5b506101d46107f1565b6040516101e19190610f3f565b60405180910390f35b3480156101f657600080fd5b50610211600480360381019061020c9190610f5a565b6107f6565b005b60046020528060005260406000206000915054906101000a900460ff1681565b606060008054906101000a900473ffffffffffffffffffffffffffffffffffffffff1673ffffffffffffffffffffffffffffffffffffffff163373ffffffffffffffffffffffffffffffffffffffff16146102c3576040517f08c379a00000000000000000000000000000000000000000000000000000000081526004016102ba90610fe4565b60405180910390fd5b60008054906101000a900473ffffffffffffffffffffffffffffffffffffffff1673ffffffffffffffffffffffffffffffffffffffff163373ffffffffffffffffffffffffffffffffffffffff161461047b57600360003373ffffffffffffffffffffffffffffffffffffffff1673ffffffffffffffffffffffffffffffffffffffff16815260200190815260200160002060009054906101000a900460ff166103a2576040517f08c379a000000000000000000000000000000000000000000000000000000000815260040161039990611050565b60405180910390fd5b82600260003373ffffffffffffffffffffffffffffffffffffffff1673ffffffffffffffffffffffffffffffffffffffff168152602001908152602001600020541015610424576040517f08c379a000000000000000000000000000000000000000000000000000000000815260040161041b906110e2565b60405180910390fd5b82600260003373ffffffffffffffffffffffffffffffffffffffff1673ffffffffffffffffffffffffffffffffffffffff16815260200190815260200160002060008282546104739190611131565b925050819055505b6000808573ffffffffffffffffffffffffffffffffffffffff1685856040516104a491906111a1565b60006040518083038185875af1925050503d80600081146104e1576040519150601f19603f3d011682016040523d82523d6000602084013e6104e6565b606091505b50915091508161052b576040517f08c379a000000000000000000000000000000000000000000000000000000000815260040161052290611204565b60405180910390fd5b80925050509392505050565b60008054906101000a900473ffffffffffffffffffffffffffffffffffffffff1681565b60008054906101000a900473ffffffffffffffffffffffffffffffffffffffff1673ffffffffffffffffffffffffffffffffffffffff163373ffffffffffffffffffffffffffffffffffffffff16146105e9576040517f08c379a00000000000000000000000000000000000000000000000000000000081526004016105e090611270565b60405180910390fd5b80600460008473ffffffffffffffffffffffffffffffffffffffff1673ffffffffffffffffffffffffffffffffffffffff16815260200190815260200160002060006101000a81548160ff0219169083151502179055505050565b60008054906101000a900473ffffffffffffffffffffffffffffffffffffffff1673ffffffffffffffffffffffffffffffffffffffff163373ffffffffffffffffffffffffffffffffffffffff16146106d2576040517f08c379a00000000000000000000000000000000000000000000000000000000081526004016106c9906112dc565b60405180910390fd5b80600260008473ffffffffffffffffffffffffffffffffffffffff1673ffffffffffffffffffffffffffffffffffffffff16815260200190815260200160002081905550600081111561077c576001600360008473ffffffffffffffffffffffffffffffffffffffff1673ffffffffffffffffffffffffffffffffffffffff16815260200190815260200160002060006101000a81548160ff0219169083151502179055506107d5565b6000600360008473ffffffffffffffffffffffffffffffffffffffff1673ffffffffffffffffffffffffffffffffffffffff16815260200190815260200160002060006101000a81548160ff0219169083151502179055505b5050565b60026020528060005260406000206000915090505481565b600381565b600460003373ffffffffffffffffffffffffffffffffffffffff1673ffffffffffffffffffffffffffffffffffffffff16815260200190815260200160002060009054906101000a900460ff16610882576040517f08c379a000000000000000000000000000000000000000000000000000000000815260040161087990611348565b60405180910390fd5b60001515600560008373ffffffffffffffffffffffffffffffffffffffff1673ffffffffffffffffffffffffffffffffffffffff16815260200190815260200160002060003373ffffffffffffffffffffffffffffffffffffffff1673ffffffffffffffffffffffffffffffffffffffff16815260200190815260200160002060009054906101000a900460ff16151514610952576040517f08c379a0000000000000000000000000000000000000000000000000000000008152600401610949906113b4565b60405180910390fd5b600160009054906101000a900473ffffffffffffffffffffffffffffffffffffffff1673ffffffffffffffffffffffffffffffffffffffff168173ffffffffffffffffffffffffffffffffffffffff16146109f15780600160006101000a81548173ffffffffffffffffffffffffffffffffffffffff021916908373ffffffffffffffffffffffffffffffffffffffff16021790555060006006819055505b60066000815480929190610a04906113d4565b9190505550600360065410610ab857600160009054906101000a900473ffffffffffffffffffffffffffffffffffffffff166000806101000a81548173ffffffffffffffffffffffffffffffffffffffff021916908373ffffffffffffffffffffffffffffffffffffffff1602179055506000600160006101000a81548173ffffffffffffffffffffffffffffffffffffffff021916908373ffffffffffffffffffffffffffffffffffffffff1602179055505b50565b6000604051905090565b600080fd5b600080fd5b600073ffffffffffffffffffffffffffffffffffffffff82169050919050565b6000610afa82610acf565b9050919050565b610b0a81610aef565b8114610b1557600080fd5b50565b600081359050610b2781610b01565b92915050565b600060208284031215610b4357610b42610ac5565b5b6000610b5184828501610b18565b91505092915050565b60008115159050919050565b610b6f81610b5a565b82525050565b6000602082019050610b8a6000830184610b66565b92915050565b6000610b9b82610acf565b9050919050565b610bab81610b90565b8114610bb657600080fd5b50565b600081359050610bc881610ba2565b92915050565b6000819050919050565b610be181610bce565b8114610bec57600080fd5b50565b600081359050610bfe81610bd8565b92915050565b600080fd5b600080fd5b6000601f19601f8301169050919050565b7f4e487b7100000000000000000000000000000000000000000000000000000000600052604160045260246000fd5b610c5782610c0e565b810181811067ffffffffffffffff82111715610c7657610c75610c1f565b5b80604052505050565b6000610c89610abb565b9050610c958282610c4e565b919050565b600067ffffffffffffffff821115610cb557610cb4610c1f565b5b610cbe82610c0e565b9050602081019050919050565b82818337600083830152505050565b6000610ced610ce884610c9a565b610c7f565b905082815260208101848484011115610d0957610d08610c09565b5b610d14848285610ccb565b509392505050565b600082601f830112610d3157610d30610c04565b5b8135610d41848260208601610cda565b91505092915050565b600080600060608486031215610d6357610d62610ac5565b5b6000610d7186828701610bb9565b9350506020610d8286828701610bef565b925050604084013567ffffffffffffffff811115610da357610da2610aca565b5b610daf86828701610d1c565b9150509250925092565b600081519050919050565b600082825260208201905092915050565b60005b83811015610df3578082015181840152602081019050610dd8565b60008484015250505050565b6000610e0a82610db9565b610e148185610dc4565b9350610e24818560208601610dd5565b610e2d81610c0e565b840191505092915050565b60006020820190508181036000830152610e528184610dff565b905092915050565b610e6381610b90565b82525050565b6000602082019050610e7e6000830184610e5a565b92915050565b610e8d81610b5a565b8114610e9857600080fd5b50565b600081359050610eaa81610e84565b92915050565b60008060408385031215610ec757610ec6610ac5565b5b6000610ed585828601610b18565b9250506020610ee685828601610e9b565b9150509250929050565b60008060408385031215610f0757610f06610ac5565b5b6000610f1585828601610b18565b9250506020610f2685828601610bef565b9150509250929050565b610f3981610bce565b82525050565b6000602082019050610f546000830184610f30565b92915050565b600060208284031215610f7057610f6f610ac5565b5b6000610f7e84828501610bb9565b91505092915050565b600082825260208201905092915050565b7f596f752061696e7420746865206f776e65720000000000000000000000000000600082015250565b6000610fce601283610f87565b9150610fd982610f98565b602082019050919050565b60006020820190508181036000830152610ffd81610fc1565b9050919050565b7f496e73756666696369656e74205065726d697373696f6e732100000000000000600082015250565b600061103a601983610f87565b915061104582611004565b602082019050919050565b600060208201905081810360008301526110698161102d565b9050919050565b7f4e6f7420616c6c6f77656420746f2073656e6420746f6f206d756368206d6f6e60008201527f6579000000000000000000000000000000000000000000000000000000000000602082015250565b60006110cc602283610f87565b91506110d782611070565b604082019050919050565b600060208201905081810360008301526110fb816110bf565b9050919050565b7f4e487b7100000000000000000000000000000000000000000000000000000000600052601160045260246000fd5b600061113c82610bce565b915061114783610bce565b925082820390508181111561115f5761115e611102565b5b92915050565b600081905092915050565b600061117b82610db9565b6111858185611165565b9350611195818560208601610dd5565b80840191505092915050565b60006111ad8284611170565b915081905092915050565b7f43616c6c20776173206e6f74207375636365737366756c000000000000000000600082015250565b60006111ee601783610f87565b91506111f9826111b8565b602082019050919050565b6000602082019050818103600083015261121d816111e1565b9050919050565b7f596f7520617265206e6f7420746865206f776e65720000000000000000000000600082015250565b600061125a601583610f87565b915061126582611224565b602082019050919050565b600060208201905081810360008301526112898161124d565b9050919050565b7f4e6f7420746865206f776e657221000000000000000000000000000000000000600082015250565b60006112c6600e83610f87565b91506112d182611290565b602082019050919050565b600060208201905081810360008301526112f5816112b9565b9050919050565b7f4f6e6c7920677561726469616e7320616c6c6f7765642e000000000000000000600082015250565b6000611332601783610f87565b915061133d826112fc565b602082019050919050565b6000602082019050818103600083015261136181611325565b9050919050565b7f596f7520616c726561647920766f746564000000000000000000000000000000600082015250565b600061139e601183610f87565b91506113a982611368565b602082019050919050565b600060208201905081810360008301526113cd81611391565b9050919050565b60006113df82610bce565b91507fffffffffffffffffffffffffffffffffffffffffffffffffffffffffffffffff820361141157611410611102565b5b60018201905091905056fea26469706673582212201201115d8c76f329b52047e6f253450d047ac7aeb5e4a9b0652665c21cba5d0b64736f6c63430008100033",
					"opcodes": "PUSH1 0x80 PUSH1 0x40 MSTORE CALLVALUE DUP1 ISZERO PUSH2 0x10 JUMPI PUSH1 0x0 DUP1 REVERT JUMPDEST POP CALLER PUSH1 0x0 DUP1 PUSH2 0x100 EXP DUP2 SLOAD DUP2 PUSH20 0xFFFFFFFFFFFFFFFFFFFFFFFFFFFFFFFFFFFFFFFF MUL NOT AND SWAP1 DUP4 PUSH20 0xFFFFFFFFFFFFFFFFFFFFFFFFFFFFFFFFFFFFFFFF AND MUL OR SWAP1 SSTORE POP PUSH2 0x1452 DUP1 PUSH2 0x60 PUSH1 0x0 CODECOPY PUSH1 0x0 RETURN INVALID PUSH1 0x80 PUSH1 0x40 MSTORE PUSH1 0x4 CALLDATASIZE LT PUSH2 0x7F JUMPI PUSH1 0x0 CALLDATALOAD PUSH1 0xE0 SHR DUP1 PUSH4 0x310EC4A7 GT PUSH2 0x4E JUMPI DUP1 PUSH4 0x310EC4A7 EQ PUSH2 0x159 JUMPI DUP1 PUSH4 0x3E5BEAB9 EQ PUSH2 0x182 JUMPI DUP1 PUSH4 0x58E404B1 EQ PUSH2 0x1BF JUMPI DUP1 PUSH4 0xB1F8100D EQ PUSH2 0x1EA JUMPI PUSH2 0x86 JUMP JUMPDEST DUP1 PUSH4 0x633B14A EQ PUSH2 0x8B JUMPI DUP1 PUSH4 0xD663035 EQ PUSH2 0xC8 JUMPI DUP1 PUSH4 0x1AE879E8 EQ PUSH2 0x105 JUMPI DUP1 PUSH4 0x2B8A1C5A EQ PUSH2 0x130 JUMPI PUSH2 0x86 JUMP JUMPDEST CALLDATASIZE PUSH2 0x86 JUMPI STOP JUMPDEST PUSH1 0x0 DUP1 REVERT JUMPDEST CALLVALUE DUP1 ISZERO PUSH2 0x97 JUMPI PUSH1 0x0 DUP1 REVERT JUMPDEST POP PUSH2 0xB2 PUSH1 0x4 DUP1 CALLDATASIZE SUB DUP2 ADD SWAP1 PUSH2 0xAD SWAP2 SWAP1 PUSH2 0xB2D JUMP JUMPDEST PUSH2 0x213 JUMP JUMPDEST PUSH1 0x40 MLOAD PUSH2 0xBF SWAP2 SWAP1 PUSH2 0xB75 JUMP JUMPDEST PUSH1 0x40 MLOAD DUP1 SWAP2 SUB SWAP1 RETURN JUMPDEST CALLVALUE DUP1 ISZERO PUSH2 0xD4 JUMPI PUSH1 0x0 DUP1 REVERT JUMPDEST POP PUSH2 0xEF PUSH1 0x4 DUP1 CALLDATASIZE SUB DUP2 ADD SWAP1 PUSH2 0xEA SWAP2 SWAP1 PUSH2 0xD4A JUMP JUMPDEST PUSH2 0x233 JUMP JUMPDEST PUSH1 0x40 MLOAD PUSH2 0xFC SWAP2 SWAP1 PUSH2 0xE38 JUMP JUMPDEST PUSH1 0x40 MLOAD DUP1 SWAP2 SUB SWAP1 RETURN JUMPDEST CALLVALUE DUP1 ISZERO PUSH2 0x111 JUMPI PUSH1 0x0 DUP1 REVERT JUMPDEST POP PUSH2 0x11A PUSH2 0x537 JUMP JUMPDEST PUSH1 0x40 MLOAD PUSH2 0x127 SWAP2 SWAP1 PUSH2 0xE69 JUMP JUMPDEST PUSH1 0x40 MLOAD DUP1 SWAP2 SUB SWAP1 RETURN JUMPDEST CALLVALUE DUP1 ISZERO PUSH2 0x13C JUMPI PUSH1 0x0 DUP1 REVERT JUMPDEST POP PUSH2 0x157 PUSH1 0x4 DUP1 CALLDATASIZE SUB DUP2 ADD SWAP1 PUSH2 0x152 SWAP2 SWAP1 PUSH2 0xEB0 JUMP JUMPDEST PUSH2 0x55B JUMP JUMPDEST STOP JUMPDEST CALLVALUE DUP1 ISZERO PUSH2 0x165 JUMPI PUSH1 0x0 DUP1 REVERT JUMPDEST POP PUSH2 0x180 PUSH1 0x4 DUP1 CALLDATASIZE SUB DUP2 ADD SWAP1 PUSH2 0x17B SWAP2 SWAP1 PUSH2 0xEF0 JUMP JUMPDEST PUSH2 0x644 JUMP JUMPDEST STOP JUMPDEST CALLVALUE DUP1 ISZERO PUSH2 0x18E JUMPI PUSH1 0x0 DUP1 REVERT JUMPDEST POP PUSH2 0x1A9 PUSH1 0x4 DUP1 CALLDATASIZE SUB DUP2 ADD SWAP1 PUSH2 0x1A4 SWAP2 SWAP1 PUSH2 0xB2D JUMP JUMPDEST PUSH2 0x7D9 JUMP JUMPDEST PUSH1 0x40 MLOAD PUSH2 0x1B6 SWAP2 SWAP1 PUSH2 0xF3F JUMP JUMPDEST PUSH1 0x40 MLOAD DUP1 SWAP2 SUB SWAP1 RETURN JUMPDEST CALLVALUE DUP1 ISZERO PUSH2 0x1CB JUMPI PUSH1 0x0 DUP1 REVERT JUMPDEST POP PUSH2 0x1D4 PUSH2 0x7F1 JUMP JUMPDEST PUSH1 0x40 MLOAD PUSH2 0x1E1 SWAP2 SWAP1 PUSH2 0xF3F JUMP JUMPDEST PUSH1 0x40 MLOAD DUP1 SWAP2 SUB SWAP1 RETURN JUMPDEST CALLVALUE DUP1 ISZERO PUSH2 0x1F6 JUMPI PUSH1 0x0 DUP1 REVERT JUMPDEST POP PUSH2 0x211 PUSH1 0x4 DUP1 CALLDATASIZE SUB DUP2 ADD SWAP1 PUSH2 0x20C SWAP2 SWAP1 PUSH2 0xF5A JUMP JUMPDEST PUSH2 0x7F6 JUMP JUMPDEST STOP JUMPDEST PUSH1 0x4 PUSH1 0x20 MSTORE DUP1 PUSH1 0x0 MSTORE PUSH1 0x40 PUSH1 0x0 KECCAK256 PUSH1 0x0 SWAP2 POP SLOAD SWAP1 PUSH2 0x100 EXP SWAP1 DIV PUSH1 0xFF AND DUP2 JUMP JUMPDEST PUSH1 0x60 PUSH1 0x0 DUP1 SLOAD SWAP1 PUSH2 0x100 EXP SWAP1 DIV PUSH20 0xFFFFFFFFFFFFFFFFFFFFFFFFFFFFFFFFFFFFFFFF AND PUSH20 0xFFFFFFFFFFFFFFFFFFFFFFFFFFFFFFFFFFFFFFFF AND CALLER PUSH20 0xFFFFFFFFFFFFFFFFFFFFFFFFFFFFFFFFFFFFFFFF AND EQ PUSH2 0x2C3 JUMPI PUSH1 0x40 MLOAD PUSH32 0x8C379A000000000000000000000000000000000000000000000000000000000 DUP2 MSTORE PUSH1 0x4 ADD PUSH2 0x2BA SWAP1 PUSH2 0xFE4 JUMP JUMPDEST PUSH1 0x40 MLOAD DUP1 SWAP2 SUB SWAP1 REVERT JUMPDEST PUSH1 0x0 DUP1 SLOAD SWAP1 PUSH2 0x100 EXP SWAP1 DIV PUSH20 0xFFFFFFFFFFFFFFFFFFFFFFFFFFFFFFFFFFFFFFFF AND PUSH20 0xFFFFFFFFFFFFFFFFFFFFFFFFFFFFFFFFFFFFFFFF AND CALLER PUSH20 0xFFFFFFFFFFFFFFFFFFFFFFFFFFFFFFFFFFFFFFFF AND EQ PUSH2 0x47B JUMPI PUSH1 0x3 PUSH1 0x0 CALLER PUSH20 0xFFFFFFFFFFFFFFFFFFFFFFFFFFFFFFFFFFFFFFFF AND PUSH20 0xFFFFFFFFFFFFFFFFFFFFFFFFFFFFFFFFFFFFFFFF AND DUP2 MSTORE PUSH1 0x20 ADD SWAP1 DUP2 MSTORE PUSH1 0x20 ADD PUSH1 0x0 KECCAK256 PUSH1 0x0 SWAP1 SLOAD SWAP1 PUSH2 0x100 EXP SWAP1 DIV PUSH1 0xFF AND PUSH2 0x3A2 JUMPI PUSH1 0x40 MLOAD PUSH32 0x8C379A000000000000000000000000000000000000000000000000000000000 DUP2 MSTORE PUSH1 0x4 ADD PUSH2 0x399 SWAP1 PUSH2 0x1050 JUMP JUMPDEST PUSH1 0x40 MLOAD DUP1 SWAP2 SUB SWAP1 REVERT JUMPDEST DUP3 PUSH1 0x2 PUSH1 0x0 CALLER PUSH20 0xFFFFFFFFFFFFFFFFFFFFFFFFFFFFFFFFFFFFFFFF AND PUSH20 0xFFFFFFFFFFFFFFFFFFFFFFFFFFFFFFFFFFFFFFFF AND DUP2 MSTORE PUSH1 0x20 ADD SWAP1 DUP2 MSTORE PUSH1 0x20 ADD PUSH1 0x0 KECCAK256 SLOAD LT ISZERO PUSH2 0x424 JUMPI PUSH1 0x40 MLOAD PUSH32 0x8C379A000000000000000000000000000000000000000000000000000000000 DUP2 MSTORE PUSH1 0x4 ADD PUSH2 0x41B SWAP1 PUSH2 0x10E2 JUMP JUMPDEST PUSH1 0x40 MLOAD DUP1 SWAP2 SUB SWAP1 REVERT JUMPDEST DUP3 PUSH1 0x2 PUSH1 0x0 CALLER PUSH20 0xFFFFFFFFFFFFFFFFFFFFFFFFFFFFFFFFFFFFFFFF AND PUSH20 0xFFFFFFFFFFFFFFFFFFFFFFFFFFFFFFFFFFFFFFFF AND DUP2 MSTORE PUSH1 0x20 ADD SWAP1 DUP2 MSTORE PUSH1 0x20 ADD PUSH1 0x0 KECCAK256 PUSH1 0x0 DUP3 DUP3 SLOAD PUSH2 0x473 SWAP2 SWAP1 PUSH2 0x1131 JUMP JUMPDEST SWAP3 POP POP DUP2 SWAP1 SSTORE POP JUMPDEST PUSH1 0x0 DUP1 DUP6 PUSH20 0xFFFFFFFFFFFFFFFFFFFFFFFFFFFFFFFFFFFFFFFF AND DUP6 DUP6 PUSH1 0x40 MLOAD PUSH2 0x4A4 SWAP2 SWAP1 PUSH2 0x11A1 JUMP JUMPDEST PUSH1 0x0 PUSH1 0x40 MLOAD DUP1 DUP4 SUB DUP2 DUP6 DUP8 GAS CALL SWAP3 POP POP POP RETURNDATASIZE DUP1 PUSH1 0x0 DUP2 EQ PUSH2 0x4E1 JUMPI PUSH1 0x40 MLOAD SWAP2 POP PUSH1 0x1F NOT PUSH1 0x3F RETURNDATASIZE ADD AND DUP3 ADD PUSH1 0x40 MSTORE RETURNDATASIZE DUP3 MSTORE RETURNDATASIZE PUSH1 0x0 PUSH1 0x20 DUP5 ADD RETURNDATACOPY PUSH2 0x4E6 JUMP JUMPDEST PUSH1 0x60 SWAP2 POP JUMPDEST POP SWAP2 POP SWAP2 POP DUP2 PUSH2 0x52B JUMPI PUSH1 0x40 MLOAD PUSH32 0x8C379A000000000000000000000000000000000000000000000000000000000 DUP2 MSTORE PUSH1 0x4 ADD PUSH2 0x522 SWAP1 PUSH2 0x1204 JUMP JUMPDEST PUSH1 0x40 MLOAD DUP1 SWAP2 SUB SWAP1 REVERT JUMPDEST DUP1 SWAP3 POP POP POP SWAP4 SWAP3 POP POP POP JUMP JUMPDEST PUSH1 0x0 DUP1 SLOAD SWAP1 PUSH2 0x100 EXP SWAP1 DIV PUSH20 0xFFFFFFFFFFFFFFFFFFFFFFFFFFFFFFFFFFFFFFFF AND DUP2 JUMP JUMPDEST PUSH1 0x0 DUP1 SLOAD SWAP1 PUSH2 0x100 EXP SWAP1 DIV PUSH20 0xFFFFFFFFFFFFFFFFFFFFFFFFFFFFFFFFFFFFFFFF AND PUSH20 0xFFFFFFFFFFFFFFFFFFFFFFFFFFFFFFFFFFFFFFFF AND CALLER PUSH20 0xFFFFFFFFFFFFFFFFFFFFFFFFFFFFFFFFFFFFFFFF AND EQ PUSH2 0x5E9 JUMPI PUSH1 0x40 MLOAD PUSH32 0x8C379A000000000000000000000000000000000000000000000000000000000 DUP2 MSTORE PUSH1 0x4 ADD PUSH2 0x5E0 SWAP1 PUSH2 0x1270 JUMP JUMPDEST PUSH1 0x40 MLOAD DUP1 SWAP2 SUB SWAP1 REVERT JUMPDEST DUP1 PUSH1 0x4 PUSH1 0x0 DUP5 PUSH20 0xFFFFFFFFFFFFFFFFFFFFFFFFFFFFFFFFFFFFFFFF AND PUSH20 0xFFFFFFFFFFFFFFFFFFFFFFFFFFFFFFFFFFFFFFFF AND DUP2 MSTORE PUSH1 0x20 ADD SWAP1 DUP2 MSTORE PUSH1 0x20 ADD PUSH1 0x0 KECCAK256 PUSH1 0x0 PUSH2 0x100 EXP DUP2 SLOAD DUP2 PUSH1 0xFF MUL NOT AND SWAP1 DUP4 ISZERO ISZERO MUL OR SWAP1 SSTORE POP POP POP JUMP JUMPDEST PUSH1 0x0 DUP1 SLOAD SWAP1 PUSH2 0x100 EXP SWAP1 DIV PUSH20 0xFFFFFFFFFFFFFFFFFFFFFFFFFFFFFFFFFFFFFFFF AND PUSH20 0xFFFFFFFFFFFFFFFFFFFFFFFFFFFFFFFFFFFFFFFF AND CALLER PUSH20 0xFFFFFFFFFFFFFFFFFFFFFFFFFFFFFFFFFFFFFFFF AND EQ PUSH2 0x6D2 JUMPI PUSH1 0x40 MLOAD PUSH32 0x8C379A000000000000000000000000000000000000000000000000000000000 DUP2 MSTORE PUSH1 0x4 ADD PUSH2 0x6C9 SWAP1 PUSH2 0x12DC JUMP JUMPDEST PUSH1 0x40 MLOAD DUP1 SWAP2 SUB SWAP1 REVERT JUMPDEST DUP1 PUSH1 0x2 PUSH1 0x0 DUP5 PUSH20 0xFFFFFFFFFFFFFFFFFFFFFFFFFFFFFFFFFFFFFFFF AND PUSH20 0xFFFFFFFFFFFFFFFFFFFFFFFFFFFFFFFFFFFFFFFF AND DUP2 MSTORE PUSH1 0x20 ADD SWAP1 DUP2 MSTORE PUSH1 0x20 ADD PUSH1 0x0 KECCAK256 DUP2 SWAP1 SSTORE POP PUSH1 0x0 DUP2 GT ISZERO PUSH2 0x77C JUMPI PUSH1 0x1 PUSH1 0x3 PUSH1 0x0 DUP5 PUSH20 0xFFFFFFFFFFFFFFFFFFFFFFFFFFFFFFFFFFFFFFFF AND PUSH20 0xFFFFFFFFFFFFFFFFFFFFFFFFFFFFFFFFFFFFFFFF AND DUP2 MSTORE PUSH1 0x20 ADD SWAP1 DUP2 MSTORE PUSH1 0x20 ADD PUSH1 0x0 KECCAK256 PUSH1 0x0 PUSH2 0x100 EXP DUP2 SLOAD DUP2 PUSH1 0xFF MUL NOT AND SWAP1 DUP4 ISZERO ISZERO MUL OR SWAP1 SSTORE POP PUSH2 0x7D5 JUMP JUMPDEST PUSH1 0x0 PUSH1 0x3 PUSH1 0x0 DUP5 PUSH20 0xFFFFFFFFFFFFFFFFFFFFFFFFFFFFFFFFFFFFFFFF AND PUSH20 0xFFFFFFFFFFFFFFFFFFFFFFFFFFFFFFFFFFFFFFFF AND DUP2 MSTORE PUSH1 0x20 ADD SWAP1 DUP2 MSTORE PUSH1 0x20 ADD PUSH1 0x0 KECCAK256 PUSH1 0x0 PUSH2 0x100 EXP DUP2 SLOAD DUP2 PUSH1 0xFF MUL NOT AND SWAP1 DUP4 ISZERO ISZERO MUL OR SWAP1 SSTORE POP JUMPDEST POP POP JUMP JUMPDEST PUSH1 0x2 PUSH1 0x20 MSTORE DUP1 PUSH1 0x0 MSTORE PUSH1 0x40 PUSH1 0x0 KECCAK256 PUSH1 0x0 SWAP2 POP SWAP1 POP SLOAD DUP2 JUMP JUMPDEST PUSH1 0x3 DUP2 JUMP JUMPDEST PUSH1 0x4 PUSH1 0x0 CALLER PUSH20 0xFFFFFFFFFFFFFFFFFFFFFFFFFFFFFFFFFFFFFFFF AND PUSH20 0xFFFFFFFFFFFFFFFFFFFFFFFFFFFFFFFFFFFFFFFF AND DUP2 MSTORE PUSH1 0x20 ADD SWAP1 DUP2 MSTORE PUSH1 0x20 ADD PUSH1 0x0 KECCAK256 PUSH1 0x0 SWAP1 SLOAD SWAP1 PUSH2 0x100 EXP SWAP1 DIV PUSH1 0xFF AND PUSH2 0x882 JUMPI PUSH1 0x40 MLOAD PUSH32 0x8C379A000000000000000000000000000000000000000000000000000000000 DUP2 MSTORE PUSH1 0x4 ADD PUSH2 0x879 SWAP1 PUSH2 0x1348 JUMP JUMPDEST PUSH1 0x40 MLOAD DUP1 SWAP2 SUB SWAP1 REVERT JUMPDEST PUSH1 0x0 ISZERO ISZERO PUSH1 0x5 PUSH1 0x0 DUP4 PUSH20 0xFFFFFFFFFFFFFFFFFFFFFFFFFFFFFFFFFFFFFFFF AND PUSH20 0xFFFFFFFFFFFFFFFFFFFFFFFFFFFFFFFFFFFFFFFF AND DUP2 MSTORE PUSH1 0x20 ADD SWAP1 DUP2 MSTORE PUSH1 0x20 ADD PUSH1 0x0 KECCAK256 PUSH1 0x0 CALLER PUSH20 0xFFFFFFFFFFFFFFFFFFFFFFFFFFFFFFFFFFFFFFFF AND PUSH20 0xFFFFFFFFFFFFFFFFFFFFFFFFFFFFFFFFFFFFFFFF AND DUP2 MSTORE PUSH1 0x20 ADD SWAP1 DUP2 MSTORE PUSH1 0x20 ADD PUSH1 0x0 KECCAK256 PUSH1 0x0 SWAP1 SLOAD SWAP1 PUSH2 0x100 EXP SWAP1 DIV PUSH1 0xFF AND ISZERO ISZERO EQ PUSH2 0x952 JUMPI PUSH1 0x40 MLOAD PUSH32 0x8C379A000000000000000000000000000000000000000000000000000000000 DUP2 MSTORE PUSH1 0x4 ADD PUSH2 0x949 SWAP1 PUSH2 0x13B4 JUMP JUMPDEST PUSH1 0x40 MLOAD DUP1 SWAP2 SUB SWAP1 REVERT JUMPDEST PUSH1 0x1 PUSH1 0x0 SWAP1 SLOAD SWAP1 PUSH2 0x100 EXP SWAP1 DIV PUSH20 0xFFFFFFFFFFFFFFFFFFFFFFFFFFFFFFFFFFFFFFFF AND PUSH20 0xFFFFFFFFFFFFFFFFFFFFFFFFFFFFFFFFFFFFFFFF AND DUP2 PUSH20 0xFFFFFFFFFFFFFFFFFFFFFFFFFFFFFFFFFFFFFFFF AND EQ PUSH2 0x9F1 JUMPI DUP1 PUSH1 0x1 PUSH1 0x0 PUSH2 0x100 EXP DUP2 SLOAD DUP2 PUSH20 0xFFFFFFFFFFFFFFFFFFFFFFFFFFFFFFFFFFFFFFFF MUL NOT AND SWAP1 DUP4 PUSH20 0xFFFFFFFFFFFFFFFFFFFFFFFFFFFFFFFFFFFFFFFF AND MUL OR SWAP1 SSTORE POP PUSH1 0x0 PUSH1 0x6 DUP2 SWAP1 SSTORE POP JUMPDEST PUSH1 0x6 PUSH1 0x0 DUP2 SLOAD DUP1 SWAP3 SWAP2 SWAP1 PUSH2 0xA04 SWAP1 PUSH2 0x13D4 JUMP JUMPDEST SWAP2 SWAP1 POP SSTORE POP PUSH1 0x3 PUSH1 0x6 SLOAD LT PUSH2 0xAB8 JUMPI PUSH1 0x1 PUSH1 0x0 SWAP1 SLOAD SWAP1 PUSH2 0x100 EXP SWAP1 DIV PUSH20 0xFFFFFFFFFFFFFFFFFFFFFFFFFFFFFFFFFFFFFFFF AND PUSH1 0x0 DUP1 PUSH2 0x100 EXP DUP2 SLOAD DUP2 PUSH20 0xFFFFFFFFFFFFFFFFFFFFFFFFFFFFFFFFFFFFFFFF MUL NOT AND SWAP1 DUP4 PUSH20 0xFFFFFFFFFFFFFFFFFFFFFFFFFFFFFFFFFFFFFFFF AND MUL OR SWAP1 SSTORE POP PUSH1 0x0 PUSH1 0x1 PUSH1 0x0 PUSH2 0x100 EXP DUP2 SLOAD DUP2 PUSH20 0xFFFFFFFFFFFFFFFFFFFFFFFFFFFFFFFFFFFFFFFF MUL NOT AND SWAP1 DUP4 PUSH20 0xFFFFFFFFFFFFFFFFFFFFFFFFFFFFFFFFFFFFFFFF AND MUL OR SWAP1 SSTORE POP JUMPDEST POP JUMP JUMPDEST PUSH1 0x0 PUSH1 0x40 MLOAD SWAP1 POP SWAP1 JUMP JUMPDEST PUSH1 0x0 DUP1 REVERT JUMPDEST PUSH1 0x0 DUP1 REVERT JUMPDEST PUSH1 0x0 PUSH20 0xFFFFFFFFFFFFFFFFFFFFFFFFFFFFFFFFFFFFFFFF DUP3 AND SWAP1 POP SWAP2 SWAP1 POP JUMP JUMPDEST PUSH1 0x0 PUSH2 0xAFA DUP3 PUSH2 0xACF JUMP JUMPDEST SWAP1 POP SWAP2 SWAP1 POP JUMP JUMPDEST PUSH2 0xB0A DUP2 PUSH2 0xAEF JUMP JUMPDEST DUP2 EQ PUSH2 0xB15 JUMPI PUSH1 0x0 DUP1 REVERT JUMPDEST POP JUMP JUMPDEST PUSH1 0x0 DUP2 CALLDATALOAD SWAP1 POP PUSH2 0xB27 DUP2 PUSH2 0xB01 JUMP JUMPDEST SWAP3 SWAP2 POP POP JUMP JUMPDEST PUSH1 0x0 PUSH1 0x20 DUP3 DUP5 SUB SLT ISZERO PUSH2 0xB43 JUMPI PUSH2 0xB42 PUSH2 0xAC5 JUMP JUMPDEST JUMPDEST PUSH1 0x0 PUSH2 0xB51 DUP5 DUP3 DUP6 ADD PUSH2 0xB18 JUMP JUMPDEST SWAP2 POP POP SWAP3 SWAP2 POP POP JUMP JUMPDEST PUSH1 0x0 DUP2 ISZERO ISZERO SWAP1 POP SWAP2 SWAP1 POP JUMP JUMPDEST PUSH2 0xB6F DUP2 PUSH2 0xB5A JUMP JUMPDEST DUP3 MSTORE POP POP JUMP JUMPDEST PUSH1 0x0 PUSH1 0x20 DUP3 ADD SWAP1 POP PUSH2 0xB8A PUSH1 0x0 DUP4 ADD DUP5 PUSH2 0xB66 JUMP JUMPDEST SWAP3 SWAP2 POP POP JUMP JUMPDEST PUSH1 0x0 PUSH2 0xB9B DUP3 PUSH2 0xACF JUMP JUMPDEST SWAP1 POP SWAP2 SWAP1 POP JUMP JUMPDEST PUSH2 0xBAB DUP2 PUSH2 0xB90 JUMP JUMPDEST DUP2 EQ PUSH2 0xBB6 JUMPI PUSH1 0x0 DUP1 REVERT JUMPDEST POP JUMP JUMPDEST PUSH1 0x0 DUP2 CALLDATALOAD SWAP1 POP PUSH2 0xBC8 DUP2 PUSH2 0xBA2 JUMP JUMPDEST SWAP3 SWAP2 POP POP JUMP JUMPDEST PUSH1 0x0 DUP2 SWAP1 POP SWAP2 SWAP1 POP JUMP JUMPDEST PUSH2 0xBE1 DUP2 PUSH2 0xBCE JUMP JUMPDEST DUP2 EQ PUSH2 0xBEC JUMPI PUSH1 0x0 DUP1 REVERT JUMPDEST POP JUMP JUMPDEST PUSH1 0x0 DUP2 CALLDATALOAD SWAP1 POP PUSH2 0xBFE DUP2 PUSH2 0xBD8 JUMP JUMPDEST SWAP3 SWAP2 POP POP JUMP JUMPDEST PUSH1 0x0 DUP1 REVERT JUMPDEST PUSH1 0x0 DUP1 REVERT JUMPDEST PUSH1 0x0 PUSH1 0x1F NOT PUSH1 0x1F DUP4 ADD AND SWAP1 POP SWAP2 SWAP1 POP JUMP JUMPDEST PUSH32 0x4E487B7100000000000000000000000000000000000000000000000000000000 PUSH1 0x0 MSTORE PUSH1 0x41 PUSH1 0x4 MSTORE PUSH1 0x24 PUSH1 0x0 REVERT JUMPDEST PUSH2 0xC57 DUP3 PUSH2 0xC0E JUMP JUMPDEST DUP2 ADD DUP2 DUP2 LT PUSH8 0xFFFFFFFFFFFFFFFF DUP3 GT OR ISZERO PUSH2 0xC76 JUMPI PUSH2 0xC75 PUSH2 0xC1F JUMP JUMPDEST JUMPDEST DUP1 PUSH1 0x40 MSTORE POP POP POP JUMP JUMPDEST PUSH1 0x0 PUSH2 0xC89 PUSH2 0xABB JUMP JUMPDEST SWAP1 POP PUSH2 0xC95 DUP3 DUP3 PUSH2 0xC4E JUMP JUMPDEST SWAP2 SWAP1 POP JUMP JUMPDEST PUSH1 0x0 PUSH8 0xFFFFFFFFFFFFFFFF DUP3 GT ISZERO PUSH2 0xCB5 JUMPI PUSH2 0xCB4 PUSH2 0xC1F JUMP JUMPDEST JUMPDEST PUSH2 0xCBE DUP3 PUSH2 0xC0E JUMP JUMPDEST SWAP1 POP PUSH1 0x20 DUP2 ADD SWAP1 POP SWAP2 SWAP1 POP JUMP JUMPDEST DUP3 DUP2 DUP4 CALLDATACOPY PUSH1 0x0 DUP4 DUP4 ADD MSTORE POP POP POP JUMP JUMPDEST PUSH1 0x0 PUSH2 0xCED PUSH2 0xCE8 DUP5 PUSH2 0xC9A JUMP JUMPDEST PUSH2 0xC7F JUMP JUMPDEST SWAP1 POP DUP3 DUP2 MSTORE PUSH1 0x20 DUP2 ADD DUP5 DUP5 DUP5 ADD GT ISZERO PUSH2 0xD09 JUMPI PUSH2 0xD08 PUSH2 0xC09 JUMP JUMPDEST JUMPDEST PUSH2 0xD14 DUP5 DUP3 DUP6 PUSH2 0xCCB JUMP JUMPDEST POP SWAP4 SWAP3 POP POP POP JUMP JUMPDEST PUSH1 0x0 DUP3 PUSH1 0x1F DUP4 ADD SLT PUSH2 0xD31 JUMPI PUSH2 0xD30 PUSH2 0xC04 JUMP JUMPDEST JUMPDEST DUP2 CALLDATALOAD PUSH2 0xD41 DUP5 DUP3 PUSH1 0x20 DUP7 ADD PUSH2 0xCDA JUMP JUMPDEST SWAP2 POP POP SWAP3 SWAP2 POP POP JUMP JUMPDEST PUSH1 0x0 DUP1 PUSH1 0x0 PUSH1 0x60 DUP5 DUP7 SUB SLT ISZERO PUSH2 0xD63 JUMPI PUSH2 0xD62 PUSH2 0xAC5 JUMP JUMPDEST JUMPDEST PUSH1 0x0 PUSH2 0xD71 DUP7 DUP3 DUP8 ADD PUSH2 0xBB9 JUMP JUMPDEST SWAP4 POP POP PUSH1 0x20 PUSH2 0xD82 DUP7 DUP3 DUP8 ADD PUSH2 0xBEF JUMP JUMPDEST SWAP3 POP POP PUSH1 0x40 DUP5 ADD CALLDATALOAD PUSH8 0xFFFFFFFFFFFFFFFF DUP2 GT ISZERO PUSH2 0xDA3 JUMPI PUSH2 0xDA2 PUSH2 0xACA JUMP JUMPDEST JUMPDEST PUSH2 0xDAF DUP7 DUP3 DUP8 ADD PUSH2 0xD1C JUMP JUMPDEST SWAP2 POP POP SWAP3 POP SWAP3 POP SWAP3 JUMP JUMPDEST PUSH1 0x0 DUP2 MLOAD SWAP1 POP SWAP2 SWAP1 POP JUMP JUMPDEST PUSH1 0x0 DUP3 DUP3 MSTORE PUSH1 0x20 DUP3 ADD SWAP1 POP SWAP3 SWAP2 POP POP JUMP JUMPDEST PUSH1 0x0 JUMPDEST DUP4 DUP2 LT ISZERO PUSH2 0xDF3 JUMPI DUP1 DUP3 ADD MLOAD DUP2 DUP5 ADD MSTORE PUSH1 0x20 DUP2 ADD SWAP1 POP PUSH2 0xDD8 JUMP JUMPDEST PUSH1 0x0 DUP5 DUP5 ADD MSTORE POP POP POP POP JUMP JUMPDEST PUSH1 0x0 PUSH2 0xE0A DUP3 PUSH2 0xDB9 JUMP JUMPDEST PUSH2 0xE14 DUP2 DUP6 PUSH2 0xDC4 JUMP JUMPDEST SWAP4 POP PUSH2 0xE24 DUP2 DUP6 PUSH1 0x20 DUP7 ADD PUSH2 0xDD5 JUMP JUMPDEST PUSH2 0xE2D DUP2 PUSH2 0xC0E JUMP JUMPDEST DUP5 ADD SWAP2 POP POP SWAP3 SWAP2 POP POP JUMP JUMPDEST PUSH1 0x0 PUSH1 0x20 DUP3 ADD SWAP1 POP DUP2 DUP2 SUB PUSH1 0x0 DUP4 ADD MSTORE PUSH2 0xE52 DUP2 DUP5 PUSH2 0xDFF JUMP JUMPDEST SWAP1 POP SWAP3 SWAP2 POP POP JUMP JUMPDEST PUSH2 0xE63 DUP2 PUSH2 0xB90 JUMP JUMPDEST DUP3 MSTORE POP POP JUMP JUMPDEST PUSH1 0x0 PUSH1 0x20 DUP3 ADD SWAP1 POP PUSH2 0xE7E PUSH1 0x0 DUP4 ADD DUP5 PUSH2 0xE5A JUMP JUMPDEST SWAP3 SWAP2 POP POP JUMP JUMPDEST PUSH2 0xE8D DUP2 PUSH2 0xB5A JUMP JUMPDEST DUP2 EQ PUSH2 0xE98 JUMPI PUSH1 0x0 DUP1 REVERT JUMPDEST POP JUMP JUMPDEST PUSH1 0x0 DUP2 CALLDATALOAD SWAP1 POP PUSH2 0xEAA DUP2 PUSH2 0xE84 JUMP JUMPDEST SWAP3 SWAP2 POP POP JUMP JUMPDEST PUSH1 0x0 DUP1 PUSH1 0x40 DUP4 DUP6 SUB SLT ISZERO PUSH2 0xEC7 JUMPI PUSH2 0xEC6 PUSH2 0xAC5 JUMP JUMPDEST JUMPDEST PUSH1 0x0 PUSH2 0xED5 DUP6 DUP3 DUP7 ADD PUSH2 0xB18 JUMP JUMPDEST SWAP3 POP POP PUSH1 0x20 PUSH2 0xEE6 DUP6 DUP3 DUP7 ADD PUSH2 0xE9B JUMP JUMPDEST SWAP2 POP POP SWAP3 POP SWAP3 SWAP1 POP JUMP JUMPDEST PUSH1 0x0 DUP1 PUSH1 0x40 DUP4 DUP6 SUB SLT ISZERO PUSH2 0xF07 JUMPI PUSH2 0xF06 PUSH2 0xAC5 JUMP JUMPDEST JUMPDEST PUSH1 0x0 PUSH2 0xF15 DUP6 DUP3 DUP7 ADD PUSH2 0xB18 JUMP JUMPDEST SWAP3 POP POP PUSH1 0x20 PUSH2 0xF26 DUP6 DUP3 DUP7 ADD PUSH2 0xBEF JUMP JUMPDEST SWAP2 POP POP SWAP3 POP SWAP3 SWAP1 POP JUMP JUMPDEST PUSH2 0xF39 DUP2 PUSH2 0xBCE JUMP JUMPDEST DUP3 MSTORE POP POP JUMP JUMPDEST PUSH1 0x0 PUSH1 0x20 DUP3 ADD SWAP1 POP PUSH2 0xF54 PUSH1 0x0 DUP4 ADD DUP5 PUSH2 0xF30 JUMP JUMPDEST SWAP3 SWAP2 POP POP JUMP JUMPDEST PUSH1 0x0 PUSH1 0x20 DUP3 DUP5 SUB SLT ISZERO PUSH2 0xF70 JUMPI PUSH2 0xF6F PUSH2 0xAC5 JUMP JUMPDEST JUMPDEST PUSH1 0x0 PUSH2 0xF7E DUP5 DUP3 DUP6 ADD PUSH2 0xBB9 JUMP JUMPDEST SWAP2 POP POP SWAP3 SWAP2 POP POP JUMP JUMPDEST PUSH1 0x0 DUP3 DUP3 MSTORE PUSH1 0x20 DUP3 ADD SWAP1 POP SWAP3 SWAP2 POP POP JUMP JUMPDEST PUSH32 0x596F752061696E7420746865206F776E65720000000000000000000000000000 PUSH1 0x0 DUP3 ADD MSTORE POP JUMP JUMPDEST PUSH1 0x0 PUSH2 0xFCE PUSH1 0x12 DUP4 PUSH2 0xF87 JUMP JUMPDEST SWAP2 POP PUSH2 0xFD9 DUP3 PUSH2 0xF98 JUMP JUMPDEST PUSH1 0x20 DUP3 ADD SWAP1 POP SWAP2 SWAP1 POP JUMP JUMPDEST PUSH1 0x0 PUSH1 0x20 DUP3 ADD SWAP1 POP DUP2 DUP2 SUB PUSH1 0x0 DUP4 ADD MSTORE PUSH2 0xFFD DUP2 PUSH2 0xFC1 JUMP JUMPDEST SWAP1 POP SWAP2 SWAP1 POP JUMP JUMPDEST PUSH32 0x496E73756666696369656E74205065726D697373696F6E732100000000000000 PUSH1 0x0 DUP3 ADD MSTORE POP JUMP JUMPDEST PUSH1 0x0 PUSH2 0x103A PUSH1 0x19 DUP4 PUSH2 0xF87 JUMP JUMPDEST SWAP2 POP PUSH2 0x1045 DUP3 PUSH2 0x1004 JUMP JUMPDEST PUSH1 0x20 DUP3 ADD SWAP1 POP SWAP2 SWAP1 POP JUMP JUMPDEST PUSH1 0x0 PUSH1 0x20 DUP3 ADD SWAP1 POP DUP2 DUP2 SUB PUSH1 0x0 DUP4 ADD MSTORE PUSH2 0x1069 DUP2 PUSH2 0x102D JUMP JUMPDEST SWAP1 POP SWAP2 SWAP1 POP JUMP JUMPDEST PUSH32 0x4E6F7420616C6C6F77656420746F2073656E6420746F6F206D756368206D6F6E PUSH1 0x0 DUP3 ADD MSTORE PUSH32 0x6579000000000000000000000000000000000000000000000000000000000000 PUSH1 0x20 DUP3 ADD MSTORE POP JUMP JUMPDEST PUSH1 0x0 PUSH2 0x10CC PUSH1 0x22 DUP4 PUSH2 0xF87 JUMP JUMPDEST SWAP2 POP PUSH2 0x10D7 DUP3 PUSH2 0x1070 JUMP JUMPDEST PUSH1 0x40 DUP3 ADD SWAP1 POP SWAP2 SWAP1 POP JUMP JUMPDEST PUSH1 0x0 PUSH1 0x20 DUP3 ADD SWAP1 POP DUP2 DUP2 SUB PUSH1 0x0 DUP4 ADD MSTORE PUSH2 0x10FB DUP2 PUSH2 0x10BF JUMP JUMPDEST SWAP1 POP SWAP2 SWAP1 POP JUMP JUMPDEST PUSH32 0x4E487B7100000000000000000000000000000000000000000000000000000000 PUSH1 0x0 MSTORE PUSH1 0x11 PUSH1 0x4 MSTORE PUSH1 0x24 PUSH1 0x0 REVERT JUMPDEST PUSH1 0x0 PUSH2 0x113C DUP3 PUSH2 0xBCE JUMP JUMPDEST SWAP2 POP PUSH2 0x1147 DUP4 PUSH2 0xBCE JUMP JUMPDEST SWAP3 POP DUP3 DUP3 SUB SWAP1 POP DUP2 DUP2 GT ISZERO PUSH2 0x115F JUMPI PUSH2 0x115E PUSH2 0x1102 JUMP JUMPDEST JUMPDEST SWAP3 SWAP2 POP POP JUMP JUMPDEST PUSH1 0x0 DUP2 SWAP1 POP SWAP3 SWAP2 POP POP JUMP JUMPDEST PUSH1 0x0 PUSH2 0x117B DUP3 PUSH2 0xDB9 JUMP JUMPDEST PUSH2 0x1185 DUP2 DUP6 PUSH2 0x1165 JUMP JUMPDEST SWAP4 POP PUSH2 0x1195 DUP2 DUP6 PUSH1 0x20 DUP7 ADD PUSH2 0xDD5 JUMP JUMPDEST DUP1 DUP5 ADD SWAP2 POP POP SWAP3 SWAP2 POP POP JUMP JUMPDEST PUSH1 0x0 PUSH2 0x11AD DUP3 DUP5 PUSH2 0x1170 JUMP JUMPDEST SWAP2 POP DUP2 SWAP1 POP SWAP3 SWAP2 POP POP JUMP JUMPDEST PUSH32 0x43616C6C20776173206E6F74207375636365737366756C000000000000000000 PUSH1 0x0 DUP3 ADD MSTORE POP JUMP JUMPDEST PUSH1 0x0 PUSH2 0x11EE PUSH1 0x17 DUP4 PUSH2 0xF87 JUMP JUMPDEST SWAP2 POP PUSH2 0x11F9 DUP3 PUSH2 0x11B8 JUMP JUMPDEST PUSH1 0x20 DUP3 ADD SWAP1 POP SWAP2 SWAP1 POP JUMP JUMPDEST PUSH1 0x0 PUSH1 0x20 DUP3 ADD SWAP1 POP DUP2 DUP2 SUB PUSH1 0x0 DUP4 ADD MSTORE PUSH2 0x121D DUP2 PUSH2 0x11E1 JUMP JUMPDEST SWAP1 POP SWAP2 SWAP1 POP JUMP JUMPDEST PUSH32 0x596F7520617265206E6F7420746865206F776E65720000000000000000000000 PUSH1 0x0 DUP3 ADD MSTORE POP JUMP JUMPDEST PUSH1 0x0 PUSH2 0x125A PUSH1 0x15 DUP4 PUSH2 0xF87 JUMP JUMPDEST SWAP2 POP PUSH2 0x1265 DUP3 PUSH2 0x1224 JUMP JUMPDEST PUSH1 0x20 DUP3 ADD SWAP1 POP SWAP2 SWAP1 POP JUMP JUMPDEST PUSH1 0x0 PUSH1 0x20 DUP3 ADD SWAP1 POP DUP2 DUP2 SUB PUSH1 0x0 DUP4 ADD MSTORE PUSH2 0x1289 DUP2 PUSH2 0x124D JUMP JUMPDEST SWAP1 POP SWAP2 SWAP1 POP JUMP JUMPDEST PUSH32 0x4E6F7420746865206F776E657221000000000000000000000000000000000000 PUSH1 0x0 DUP3 ADD MSTORE POP JUMP JUMPDEST PUSH1 0x0 PUSH2 0x12C6 PUSH1 0xE DUP4 PUSH2 0xF87 JUMP JUMPDEST SWAP2 POP PUSH2 0x12D1 DUP3 PUSH2 0x1290 JUMP JUMPDEST PUSH1 0x20 DUP3 ADD SWAP1 POP SWAP2 SWAP1 POP JUMP JUMPDEST PUSH1 0x0 PUSH1 0x20 DUP3 ADD SWAP1 POP DUP2 DUP2 SUB PUSH1 0x0 DUP4 ADD MSTORE PUSH2 0x12F5 DUP2 PUSH2 0x12B9 JUMP JUMPDEST SWAP1 POP SWAP2 SWAP1 POP JUMP JUMPDEST PUSH32 0x4F6E6C7920677561726469616E7320616C6C6F7765642E000000000000000000 PUSH1 0x0 DUP3 ADD MSTORE POP JUMP JUMPDEST PUSH1 0x0 PUSH2 0x1332 PUSH1 0x17 DUP4 PUSH2 0xF87 JUMP JUMPDEST SWAP2 POP PUSH2 0x133D DUP3 PUSH2 0x12FC JUMP JUMPDEST PUSH1 0x20 DUP3 ADD SWAP1 POP SWAP2 SWAP1 POP JUMP JUMPDEST PUSH1 0x0 PUSH1 0x20 DUP3 ADD SWAP1 POP DUP2 DUP2 SUB PUSH1 0x0 DUP4 ADD MSTORE PUSH2 0x1361 DUP2 PUSH2 0x1325 JUMP JUMPDEST SWAP1 POP SWAP2 SWAP1 POP JUMP JUMPDEST PUSH32 0x596F7520616C726561647920766F746564000000000000000000000000000000 PUSH1 0x0 DUP3 ADD MSTORE POP JUMP JUMPDEST PUSH1 0x0 PUSH2 0x139E PUSH1 0x11 DUP4 PUSH2 0xF87 JUMP JUMPDEST SWAP2 POP PUSH2 0x13A9 DUP3 PUSH2 0x1368 JUMP JUMPDEST PUSH1 0x20 DUP3 ADD SWAP1 POP SWAP2 SWAP1 POP JUMP JUMPDEST PUSH1 0x0 PUSH1 0x20 DUP3 ADD SWAP1 POP DUP2 DUP2 SUB PUSH1 0x0 DUP4 ADD MSTORE PUSH2 0x13CD DUP2 PUSH2 0x1391 JUMP JUMPDEST SWAP1 POP SWAP2 SWAP1 POP JUMP JUMPDEST PUSH1 0x0 PUSH2 0x13DF DUP3 PUSH2 0xBCE JUMP JUMPDEST SWAP2 POP PUSH32 0xFFFFFFFFFFFFFFFFFFFFFFFFFFFFFFFFFFFFFFFFFFFFFFFFFFFFFFFFFFFFFFFF DUP3 SUB PUSH2 0x1411 JUMPI PUSH2 0x1410 PUSH2 0x1102 JUMP JUMPDEST JUMPDEST PUSH1 0x1 DUP3 ADD SWAP1 POP SWAP2 SWAP1 POP JUMP INVALID LOG2 PUSH5 0x6970667358 0x22 SLT KECCAK256 SLT ADD GT 0x5D DUP13 PUSH23 0xF329B52047E6F253450D047AC7AEB5E4A9B0652665C21C 0xBA 0x5D SIGNEXTEND PUSH5 0x736F6C6343 STOP ADDMOD LT STOP CALLER "
				},
				"gasEstimates": {
					"creation": {
						"codeDepositCost": "1040400",
						"executionCost": "25346",
						"totalCost": "1065746"
					},
					"external": {
						"allowance(address)": "2836",
						"confirmationFromGuardiansForReset()": "373",
						"guardians(address)": "2846",
						"proposeNewOwner(address)": "63045",
						"setAllowance(address,uint256)": "49393",
						"setGuardian(address,bool)": "27225",
						"transferFunds(address,uint256,bytes)": "infinite",
						"walletOwner()": "2556"
					}
				},
				"methodIdentifiers": {
					"allowance(address)": "3e5beab9",
					"confirmationFromGuardiansForReset()": "58e404b1",
					"guardians(address)": "0633b14a",
					"proposeNewOwner(address)": "b1f8100d",
					"setAllowance(address,uint256)": "310ec4a7",
					"setGuardian(address,bool)": "2b8a1c5a",
					"transferFunds(address,uint256,bytes)": "0d663035",
					"walletOwner()": "1ae879e8"
				}
			},
			"storageLayout": {
				"storage": [
					{
						"astId": 20,
						"contract": "contracts/EWallet.sol:EWallet",
						"label": "walletOwner",
						"offset": 0,
						"slot": "0",
						"type": "t_address_payable"
					},
					{
						"astId": 22,
						"contract": "contracts/EWallet.sol:EWallet",
						"label": "nextOwner",
						"offset": 0,
						"slot": "1",
						"type": "t_address_payable"
					},
					{
						"astId": 26,
						"contract": "contracts/EWallet.sol:EWallet",
						"label": "allowance",
						"offset": 0,
						"slot": "2",
						"type": "t_mapping(t_address,t_uint256)"
					},
					{
						"astId": 30,
						"contract": "contracts/EWallet.sol:EWallet",
						"label": "isAllowedToSend",
						"offset": 0,
						"slot": "3",
						"type": "t_mapping(t_address,t_bool)"
					},
					{
						"astId": 34,
						"contract": "contracts/EWallet.sol:EWallet",
						"label": "guardians",
						"offset": 0,
						"slot": "4",
						"type": "t_mapping(t_address,t_bool)"
					},
					{
						"astId": 40,
						"contract": "contracts/EWallet.sol:EWallet",
						"label": "nexOwnerGuardianVotedBool",
						"offset": 0,
						"slot": "5",
						"type": "t_mapping(t_address,t_mapping(t_address,t_bool))"
					},
					{
						"astId": 42,
						"contract": "contracts/EWallet.sol:EWallet",
						"label": "guardianResetCount",
						"offset": 0,
						"slot": "6",
						"type": "t_uint256"
					}
				],
				"types": {
					"t_address": {
						"encoding": "inplace",
						"label": "address",
						"numberOfBytes": "20"
					},
					"t_address_payable": {
						"encoding": "inplace",
						"label": "address payable",
						"numberOfBytes": "20"
					},
					"t_bool": {
						"encoding": "inplace",
						"label": "bool",
						"numberOfBytes": "1"
					},
					"t_mapping(t_address,t_bool)": {
						"encoding": "mapping",
						"key": "t_address",
						"label": "mapping(address => bool)",
						"numberOfBytes": "32",
						"value": "t_bool"
					},
					"t_mapping(t_address,t_mapping(t_address,t_bool))": {
						"encoding": "mapping",
						"key": "t_address",
						"label": "mapping(address => mapping(address => bool))",
						"numberOfBytes": "32",
						"value": "t_mapping(t_address,t_bool)"
					},
					"t_mapping(t_address,t_uint256)": {
						"encoding": "mapping",
						"key": "t_address",
						"label": "mapping(address => uint256)",
						"numberOfBytes": "32",
						"value": "t_uint256"
					},
					"t_uint256": {
						"encoding": "inplace",
						"label": "uint256",
						"numberOfBytes": "32"
					}
				}
			},
			"userdoc": {
				"kind": "user",
				"methods": {},
				"version": 1
			}
		}
	}
}