{
	"data": {
		"bytecode": {
			"linkReferences": {},
			"object": "608060405234801561001057600080fd5b5061011b806100206000396000f3fe6080604052348015600f57600080fd5b506004361060285760003560e01c806339c117a414602d575b600080fd5b60336035565b005b6040517fb94e62a100000000000000000000000000000000000000000000000000000000815260040160659060c7565b60405180910390fd5b600082825260208201905092915050565b7f596f7520617265206e6f7420616c6c6f77656421000000000000000000000000600082015250565b600060b3601483606e565b915060bc82607f565b602082019050919050565b6000602082019050818103600083015260de8160a8565b905091905056fea2646970667358221220bf34d76b5873367570ed16aeeac352aaed8d2eedd2474eb88f4656166cf0454e64736f6c634300080f0033",
			"opcodes": "PUSH1 0x80 PUSH1 0x40 MSTORE CALLVALUE DUP1 ISZERO PUSH2 0x10 JUMPI PUSH1 0x0 DUP1 REVERT JUMPDEST POP PUSH2 0x11B DUP1 PUSH2 0x20 PUSH1 0x0 CODECOPY PUSH1 0x0 RETURN INVALID PUSH1 0x80 PUSH1 0x40 MSTORE CALLVALUE DUP1 ISZERO PUSH1 0xF JUMPI PUSH1 0x0 DUP1 REVERT JUMPDEST POP PUSH1 0x4 CALLDATASIZE LT PUSH1 0x28 JUMPI PUSH1 0x0 CALLDATALOAD PUSH1 0xE0 SHR DUP1 PUSH4 0x39C117A4 EQ PUSH1 0x2D JUMPI JUMPDEST PUSH1 0x0 DUP1 REVERT JUMPDEST PUSH1 0x33 PUSH1 0x35 JUMP JUMPDEST STOP JUMPDEST PUSH1 0x40 MLOAD PUSH32 0xB94E62A100000000000000000000000000000000000000000000000000000000 DUP2 MSTORE PUSH1 0x4 ADD PUSH1 0x65 SWAP1 PUSH1 0xC7 JUMP JUMPDEST PUSH1 0x40 MLOAD DUP1 SWAP2 SUB SWAP1 REVERT JUMPDEST PUSH1 0x0 DUP3 DUP3 MSTORE PUSH1 0x20 DUP3 ADD SWAP1 POP SWAP3 SWAP2 POP POP JUMP JUMPDEST PUSH32 0x596F7520617265206E6F7420616C6C6F77656421000000000000000000000000 PUSH1 0x0 DUP3 ADD MSTORE POP JUMP JUMPDEST PUSH1 0x0 PUSH1 0xB3 PUSH1 0x14 DUP4 PUSH1 0x6E JUMP JUMPDEST SWAP2 POP PUSH1 0xBC DUP3 PUSH1 0x7F JUMP JUMPDEST PUSH1 0x20 DUP3 ADD SWAP1 POP SWAP2 SWAP1 POP JUMP JUMPDEST PUSH1 0x0 PUSH1 0x20 DUP3 ADD SWAP1 POP DUP2 DUP2 SUB PUSH1 0x0 DUP4 ADD MSTORE PUSH1 0xDE DUP2 PUSH1 0xA8 JUMP JUMPDEST SWAP1 POP SWAP2 SWAP1 POP JUMP INVALID LOG2 PUSH5 0x6970667358 0x22 SLT KECCAK256 0xBF CALLVALUE 0xD7 PUSH12 0x5873367570ED16AEEAC352AA 0xED DUP14 0x2E 0xED 0xD2 SELFBALANCE 0x4E 0xB8 DUP16 CHAINID JUMP AND PUSH13 0xF0454E64736F6C634300080F00 CALLER "
		},
		"gasEstimates": {
			"creation": {
				"codeDepositCost": "56600",
				"executionCost": "105",
				"totalCost": "56705"
			},
			"external": {
				"aFunction()": "412"
			}
		},
		"methodIdentifiers": {
			"aFunction()": "39c117a4"
		}
	},
	"abi": [
		{
			"inputs": [
				{
					"internalType": "string",
					"name": "",
					"type": "string"
				}
			],
			"name": "NotAllowedError",
			"type": "error"
		},
		{
			"inputs": [],
			"name": "aFunction",
			"outputs": [],
			"stateMutability": "pure",
			"type": "function"
		}
	]
}